{
	"contracts/SimpleStorage1.sol": {
		"SimpleStorage": {
			"abi": [
				{
					"inputs": [],
					"name": "activateContract",
					"outputs": [],
					"stateMutability": "nonpayable",
					"type": "function"
				},
				{
					"inputs": [
						{
							"internalType": "string",
							"name": "_name",
							"type": "string"
						},
						{
							"internalType": "uint256",
							"name": "_favoriteNumber",
							"type": "uint256"
						}
					],
					"name": "addPerson",
					"outputs": [],
					"stateMutability": "nonpayable",
					"type": "function"
				},
				{
					"inputs": [],
					"name": "deactivateContract",
					"outputs": [],
					"stateMutability": "nonpayable",
					"type": "function"
				},
				{
					"inputs": [
						{
							"internalType": "uint256",
							"name": "",
							"type": "uint256"
						}
					],
					"name": "favoriteNumbers",
					"outputs": [
						{
							"internalType": "uint256",
							"name": "",
							"type": "uint256"
						}
					],
					"stateMutability": "view",
					"type": "function"
				},
				{
					"inputs": [],
					"name": "getFavoriteNumber",
					"outputs": [
						{
							"internalType": "uint256",
							"name": "",
							"type": "uint256"
						}
					],
					"stateMutability": "view",
					"type": "function"
				},
				{
					"inputs": [],
					"name": "isActive",
					"outputs": [
						{
							"internalType": "bool",
							"name": "",
							"type": "bool"
						}
					],
					"stateMutability": "view",
					"type": "function"
				},
				{
					"inputs": [
						{
							"internalType": "uint256",
							"name": "_compareValue",
							"type": "uint256"
						}
					],
					"name": "isGreaterThan",
					"outputs": [
						{
							"internalType": "bool",
							"name": "",
							"type": "bool"
						}
					],
					"stateMutability": "view",
					"type": "function"
				},
				{
					"inputs": [
						{
							"internalType": "string",
							"name": "",
							"type": "string"
						}
					],
					"name": "nameToFavoriteNumber",
					"outputs": [
						{
							"internalType": "uint256",
							"name": "",
							"type": "uint256"
						}
					],
					"stateMutability": "view",
					"type": "function"
				},
				{
					"inputs": [
						{
							"internalType": "uint256",
							"name": "",
							"type": "uint256"
						}
					],
					"name": "people",
					"outputs": [
						{
							"internalType": "string",
							"name": "name",
							"type": "string"
						},
						{
							"internalType": "uint256",
							"name": "favoriteNumber",
							"type": "uint256"
						}
					],
					"stateMutability": "view",
					"type": "function"
				},
				{
					"inputs": [],
					"name": "state",
					"outputs": [
						{
							"internalType": "enum SimpleStorage.ContractState",
							"name": "",
							"type": "uint8"
						}
					],
					"stateMutability": "view",
					"type": "function"
				},
				{
					"inputs": [
						{
							"internalType": "uint256",
							"name": "_favoriteNumber",
							"type": "uint256"
						}
					],
					"name": "storeNumber",
					"outputs": [],
					"stateMutability": "nonpayable",
					"type": "function"
				},
				{
					"inputs": [],
					"name": "sumToFavoriteNumber",
					"outputs": [
						{
							"internalType": "uint256",
							"name": "",
							"type": "uint256"
						}
					],
					"stateMutability": "view",
					"type": "function"
				}
			],
			"devdoc": {
				"kind": "dev",
				"methods": {},
				"version": 1
			},
			"evm": {
				"assembly": "    /* \"contracts/SimpleStorage1.sol\":61:1746  contract SimpleStorage {... */\n  mstore(0x40, 0x80)\n    /* \"contracts/SimpleStorage1.sol\":116:120  true */\n  0x01\n    /* \"contracts/SimpleStorage1.sol\":91:120  bool hasFavoriteNumber = true */\n  0x00\n  dup1\n  0x0100\n  exp\n  dup2\n  sload\n  dup2\n  0xff\n  mul\n  not\n  and\n  swap1\n  dup4\n  iszero\n  iszero\n  mul\n  or\n  swap1\n  sstore\n  pop\n    /* \"contracts/SimpleStorage1.sol\":152:154  42 */\n  0x2a\n    /* \"contracts/SimpleStorage1.sol\":127:154  uint256 favoriteNumber = 42 */\n  0x01\n  sstore\n    /* \"contracts/SimpleStorage1.sol\":182:185  -42 */\n  0xffffffffffffffffffffffffffffffffffffffffffffffffffffffffffffffd6\n    /* \"contracts/SimpleStorage1.sol\":161:185  int256 favoriteInt = -42 */\n  0x02\n  sstore\n    /* \"contracts/SimpleStorage1.sol\":209:251  0xAb8483F64d9C6d1EcF9b849Ae677dD3315835cb2 */\n  0xab8483f64d9c6d1ecf9b849ae677dd3315835cb2\n    /* \"contracts/SimpleStorage1.sol\":193:251  address owner = 0xAb8483F64d9C6d1EcF9b849Ae677dD3315835cb2 */\n  0x03\n  exp(0x0100, 0x00)\n  dup2\n  sload\n  dup2\n  0xffffffffffffffffffffffffffffffffffffffff\n  mul\n  not\n  and\n  swap1\n  dup4\n  0xffffffffffffffffffffffffffffffffffffffff\n  and\n  mul\n  or\n  swap1\n  sstore\n  pop\n    /* \"contracts/SimpleStorage1.sol\":258:299  string favoriteNumberInText = \"forty-two\" */\n  mload(0x40)\n  dup1\n  0x40\n  add\n  0x40\n  mstore\n  dup1\n  0x09\n  dup2\n  mstore\n  0x20\n  add\n  0x666f7274792d74776f0000000000000000000000000000000000000000000000\n  dup2\n  mstore\n  pop\n  0x04\n  swap1\n  dup2\n  tag_1\n  swap2\n  swap1\n  tag_2\n  jump\t// in\ntag_1:\n  pop\n    /* \"contracts/SimpleStorage1.sol\":306:360  bytes32 favoriteBytes = \"0x1234567890abcdef1234567890\" */\n  sstore(0x05, 0x3078313233343536373839306162636465663132333435363738393000000000)\n    /* \"contracts/SimpleStorage1.sol\":61:1746  contract SimpleStorage {... */\n  callvalue\n  dup1\n  iszero\n  tag_3\n  jumpi\n  0x00\n  dup1\n  revert\ntag_3:\n  pop\n  jump(tag_4)\n    /* \"#utility.yul\":7:106   */\ntag_5:\n    /* \"#utility.yul\":59:65   */\n  0x00\n    /* \"#utility.yul\":93:98   */\n  dup2\n    /* \"#utility.yul\":87:99   */\n  mload\n    /* \"#utility.yul\":77:99   */\n  swap1\n  pop\n    /* \"#utility.yul\":7:106   */\n  swap2\n  swap1\n  pop\n  jump\t// out\n    /* \"#utility.yul\":112:292   */\ntag_6:\n    /* \"#utility.yul\":160:237   */\n  0x4e487b7100000000000000000000000000000000000000000000000000000000\n    /* \"#utility.yul\":157:158   */\n  0x00\n    /* \"#utility.yul\":150:238   */\n  mstore\n    /* \"#utility.yul\":257:261   */\n  0x41\n    /* \"#utility.yul\":254:255   */\n  0x04\n    /* \"#utility.yul\":247:262   */\n  mstore\n    /* \"#utility.yul\":281:285   */\n  0x24\n    /* \"#utility.yul\":278:279   */\n  0x00\n    /* \"#utility.yul\":271:286   */\n  revert\n    /* \"#utility.yul\":298:478   */\ntag_7:\n    /* \"#utility.yul\":346:423   */\n  0x4e487b7100000000000000000000000000000000000000000000000000000000\n    /* \"#utility.yul\":343:344   */\n  0x00\n    /* \"#utility.yul\":336:424   */\n  mstore\n    /* \"#utility.yul\":443:447   */\n  0x22\n    /* \"#utility.yul\":440:441   */\n  0x04\n    /* \"#utility.yul\":433:448   */\n  mstore\n    /* \"#utility.yul\":467:471   */\n  0x24\n    /* \"#utility.yul\":464:465   */\n  0x00\n    /* \"#utility.yul\":457:472   */\n  revert\n    /* \"#utility.yul\":484:804   */\ntag_8:\n    /* \"#utility.yul\":528:534   */\n  0x00\n    /* \"#utility.yul\":565:566   */\n  0x02\n    /* \"#utility.yul\":559:563   */\n  dup3\n    /* \"#utility.yul\":555:567   */\n  div\n    /* \"#utility.yul\":545:567   */\n  swap1\n  pop\n    /* \"#utility.yul\":612:613   */\n  0x01\n    /* \"#utility.yul\":606:610   */\n  dup3\n    /* \"#utility.yul\":602:614   */\n  and\n    /* \"#utility.yul\":633:651   */\n  dup1\n    /* \"#utility.yul\":623:704   */\n  tag_30\n  jumpi\n    /* \"#utility.yul\":689:693   */\n  0x7f\n    /* \"#utility.yul\":681:687   */\n  dup3\n    /* \"#utility.yul\":677:694   */\n  and\n    /* \"#utility.yul\":667:694   */\n  swap2\n  pop\n    /* \"#utility.yul\":623:704   */\ntag_30:\n    /* \"#utility.yul\":751:753   */\n  0x20\n    /* \"#utility.yul\":743:749   */\n  dup3\n    /* \"#utility.yul\":740:754   */\n  lt\n    /* \"#utility.yul\":720:738   */\n  dup2\n    /* \"#utility.yul\":717:755   */\n  sub\n    /* \"#utility.yul\":714:798   */\n  tag_31\n  jumpi\n    /* \"#utility.yul\":770:788   */\n  tag_32\n  tag_7\n  jump\t// in\ntag_32:\n    /* \"#utility.yul\":714:798   */\ntag_31:\n    /* \"#utility.yul\":535:804   */\n  pop\n    /* \"#utility.yul\":484:804   */\n  swap2\n  swap1\n  pop\n  jump\t// out\n    /* \"#utility.yul\":810:951   */\ntag_9:\n    /* \"#utility.yul\":859:863   */\n  0x00\n    /* \"#utility.yul\":882:885   */\n  dup2\n    /* \"#utility.yul\":874:885   */\n  swap1\n  pop\n    /* \"#utility.yul\":905:908   */\n  dup2\n    /* \"#utility.yul\":902:903   */\n  0x00\n    /* \"#utility.yul\":895:909   */\n  mstore\n    /* \"#utility.yul\":939:943   */\n  0x20\n    /* \"#utility.yul\":936:937   */\n  0x00\n    /* \"#utility.yul\":926:944   */\n  keccak256\n    /* \"#utility.yul\":918:944   */\n  swap1\n  pop\n    /* \"#utility.yul\":810:951   */\n  swap2\n  swap1\n  pop\n  jump\t// out\n    /* \"#utility.yul\":957:1050   */\ntag_10:\n    /* \"#utility.yul\":994:1000   */\n  0x00\n    /* \"#utility.yul\":1041:1043   */\n  0x20\n    /* \"#utility.yul\":1036:1038   */\n  0x1f\n    /* \"#utility.yul\":1029:1034   */\n  dup4\n    /* \"#utility.yul\":1025:1039   */\n  add\n    /* \"#utility.yul\":1021:1044   */\n  div\n    /* \"#utility.yul\":1011:1044   */\n  swap1\n  pop\n    /* \"#utility.yul\":957:1050   */\n  swap2\n  swap1\n  pop\n  jump\t// out\n    /* \"#utility.yul\":1056:1163   */\ntag_11:\n    /* \"#utility.yul\":1100:1108   */\n  0x00\n    /* \"#utility.yul\":1150:1155   */\n  dup3\n    /* \"#utility.yul\":1144:1148   */\n  dup3\n    /* \"#utility.yul\":1140:1156   */\n  shl\n    /* \"#utility.yul\":1119:1156   */\n  swap1\n  pop\n    /* \"#utility.yul\":1056:1163   */\n  swap3\n  swap2\n  pop\n  pop\n  jump\t// out\n    /* \"#utility.yul\":1169:1562   */\ntag_12:\n    /* \"#utility.yul\":1238:1244   */\n  0x00\n    /* \"#utility.yul\":1288:1289   */\n  0x08\n    /* \"#utility.yul\":1276:1286   */\n  dup4\n    /* \"#utility.yul\":1272:1290   */\n  mul\n    /* \"#utility.yul\":1311:1408   */\n  tag_37\n    /* \"#utility.yul\":1341:1407   */\n  0xffffffffffffffffffffffffffffffffffffffffffffffffffffffffffffffff\n    /* \"#utility.yul\":1330:1339   */\n  dup3\n    /* \"#utility.yul\":1311:1408   */\n  tag_11\n  jump\t// in\ntag_37:\n    /* \"#utility.yul\":1429:1468   */\n  tag_38\n    /* \"#utility.yul\":1459:1467   */\n  dup7\n    /* \"#utility.yul\":1448:1457   */\n  dup4\n    /* \"#utility.yul\":1429:1468   */\n  tag_11\n  jump\t// in\ntag_38:\n    /* \"#utility.yul\":1417:1468   */\n  swap6\n  pop\n    /* \"#utility.yul\":1501:1505   */\n  dup1\n    /* \"#utility.yul\":1497:1506   */\n  not\n    /* \"#utility.yul\":1490:1495   */\n  dup5\n    /* \"#utility.yul\":1486:1507   */\n  and\n    /* \"#utility.yul\":1477:1507   */\n  swap4\n  pop\n    /* \"#utility.yul\":1550:1554   */\n  dup1\n    /* \"#utility.yul\":1540:1548   */\n  dup7\n    /* \"#utility.yul\":1536:1555   */\n  and\n    /* \"#utility.yul\":1529:1534   */\n  dup5\n    /* \"#utility.yul\":1526:1556   */\n  or\n    /* \"#utility.yul\":1516:1556   */\n  swap3\n  pop\n    /* \"#utility.yul\":1245:1562   */\n  pop\n  pop\n    /* \"#utility.yul\":1169:1562   */\n  swap4\n  swap3\n  pop\n  pop\n  pop\n  jump\t// out\n    /* \"#utility.yul\":1568:1645   */\ntag_13:\n    /* \"#utility.yul\":1605:1612   */\n  0x00\n    /* \"#utility.yul\":1634:1639   */\n  dup2\n    /* \"#utility.yul\":1623:1639   */\n  swap1\n  pop\n    /* \"#utility.yul\":1568:1645   */\n  swap2\n  swap1\n  pop\n  jump\t// out\n    /* \"#utility.yul\":1651:1711   */\ntag_14:\n    /* \"#utility.yul\":1679:1682   */\n  0x00\n    /* \"#utility.yul\":1700:1705   */\n  dup2\n    /* \"#utility.yul\":1693:1705   */\n  swap1\n  pop\n    /* \"#utility.yul\":1651:1711   */\n  swap2\n  swap1\n  pop\n  jump\t// out\n    /* \"#utility.yul\":1717:1859   */\ntag_15:\n    /* \"#utility.yul\":1767:1776   */\n  0x00\n    /* \"#utility.yul\":1800:1853   */\n  tag_42\n    /* \"#utility.yul\":1818:1852   */\n  tag_43\n    /* \"#utility.yul\":1827:1851   */\n  tag_44\n    /* \"#utility.yul\":1845:1850   */\n  dup5\n    /* \"#utility.yul\":1827:1851   */\n  tag_13\n  jump\t// in\ntag_44:\n    /* \"#utility.yul\":1818:1852   */\n  tag_14\n  jump\t// in\ntag_43:\n    /* \"#utility.yul\":1800:1853   */\n  tag_13\n  jump\t// in\ntag_42:\n    /* \"#utility.yul\":1787:1853   */\n  swap1\n  pop\n    /* \"#utility.yul\":1717:1859   */\n  swap2\n  swap1\n  pop\n  jump\t// out\n    /* \"#utility.yul\":1865:1940   */\ntag_16:\n    /* \"#utility.yul\":1908:1911   */\n  0x00\n    /* \"#utility.yul\":1929:1934   */\n  dup2\n    /* \"#utility.yul\":1922:1934   */\n  swap1\n  pop\n    /* \"#utility.yul\":1865:1940   */\n  swap2\n  swap1\n  pop\n  jump\t// out\n    /* \"#utility.yul\":1946:2215   */\ntag_17:\n    /* \"#utility.yul\":2056:2095   */\n  tag_47\n    /* \"#utility.yul\":2087:2094   */\n  dup4\n    /* \"#utility.yul\":2056:2095   */\n  tag_15\n  jump\t// in\ntag_47:\n    /* \"#utility.yul\":2117:2208   */\n  tag_48\n    /* \"#utility.yul\":2166:2207   */\n  tag_49\n    /* \"#utility.yul\":2190:2206   */\n  dup3\n    /* \"#utility.yul\":2166:2207   */\n  tag_16\n  jump\t// in\ntag_49:\n    /* \"#utility.yul\":2158:2164   */\n  dup5\n    /* \"#utility.yul\":2151:2155   */\n  dup5\n    /* \"#utility.yul\":2145:2156   */\n  sload\n    /* \"#utility.yul\":2117:2208   */\n  tag_12\n  jump\t// in\ntag_48:\n    /* \"#utility.yul\":2111:2115   */\n  dup3\n    /* \"#utility.yul\":2104:2209   */\n  sstore\n    /* \"#utility.yul\":2022:2215   */\n  pop\n    /* \"#utility.yul\":1946:2215   */\n  pop\n  pop\n  pop\n  jump\t// out\n    /* \"#utility.yul\":2221:2294   */\ntag_18:\n    /* \"#utility.yul\":2266:2269   */\n  0x00\n    /* \"#utility.yul\":2221:2294   */\n  swap1\n  jump\t// out\n    /* \"#utility.yul\":2300:2489   */\ntag_19:\n    /* \"#utility.yul\":2377:2409   */\n  tag_52\n  tag_18\n  jump\t// in\ntag_52:\n    /* \"#utility.yul\":2418:2483   */\n  tag_53\n    /* \"#utility.yul\":2476:2482   */\n  dup2\n    /* \"#utility.yul\":2468:2474   */\n  dup5\n    /* \"#utility.yul\":2462:2466   */\n  dup5\n    /* \"#utility.yul\":2418:2483   */\n  tag_17\n  jump\t// in\ntag_53:\n    /* \"#utility.yul\":2353:2489   */\n  pop\n    /* \"#utility.yul\":2300:2489   */\n  pop\n  pop\n  jump\t// out\n    /* \"#utility.yul\":2495:2681   */\ntag_20:\n    /* \"#utility.yul\":2555:2675   */\ntag_55:\n    /* \"#utility.yul\":2572:2575   */\n  dup2\n    /* \"#utility.yul\":2565:2570   */\n  dup2\n    /* \"#utility.yul\":2562:2576   */\n  lt\n    /* \"#utility.yul\":2555:2675   */\n  iszero\n  tag_57\n  jumpi\n    /* \"#utility.yul\":2626:2665   */\n  tag_58\n    /* \"#utility.yul\":2663:2664   */\n  0x00\n    /* \"#utility.yul\":2656:2661   */\n  dup3\n    /* \"#utility.yul\":2626:2665   */\n  tag_19\n  jump\t// in\ntag_58:\n    /* \"#utility.yul\":2599:2600   */\n  0x01\n    /* \"#utility.yul\":2592:2597   */\n  dup2\n    /* \"#utility.yul\":2588:2601   */\n  add\n    /* \"#utility.yul\":2579:2601   */\n  swap1\n  pop\n    /* \"#utility.yul\":2555:2675   */\n  jump(tag_55)\ntag_57:\n    /* \"#utility.yul\":2495:2681   */\n  pop\n  pop\n  jump\t// out\n    /* \"#utility.yul\":2687:3230   */\ntag_21:\n    /* \"#utility.yul\":2788:2790   */\n  0x1f\n    /* \"#utility.yul\":2783:2786   */\n  dup3\n    /* \"#utility.yul\":2780:2791   */\n  gt\n    /* \"#utility.yul\":2777:3223   */\n  iszero\n  tag_60\n  jumpi\n    /* \"#utility.yul\":2822:2860   */\n  tag_61\n    /* \"#utility.yul\":2854:2859   */\n  dup2\n    /* \"#utility.yul\":2822:2860   */\n  tag_9\n  jump\t// in\ntag_61:\n    /* \"#utility.yul\":2906:2935   */\n  tag_62\n    /* \"#utility.yul\":2924:2934   */\n  dup5\n    /* \"#utility.yul\":2906:2935   */\n  tag_10\n  jump\t// in\ntag_62:\n    /* \"#utility.yul\":2896:2904   */\n  dup2\n    /* \"#utility.yul\":2892:2936   */\n  add\n    /* \"#utility.yul\":3089:3091   */\n  0x20\n    /* \"#utility.yul\":3077:3087   */\n  dup6\n    /* \"#utility.yul\":3074:3092   */\n  lt\n    /* \"#utility.yul\":3071:3120   */\n  iszero\n  tag_63\n  jumpi\n    /* \"#utility.yul\":3110:3118   */\n  dup2\n    /* \"#utility.yul\":3095:3118   */\n  swap1\n  pop\n    /* \"#utility.yul\":3071:3120   */\ntag_63:\n    /* \"#utility.yul\":3133:3213   */\n  tag_64\n    /* \"#utility.yul\":3189:3211   */\n  tag_65\n    /* \"#utility.yul\":3207:3210   */\n  dup6\n    /* \"#utility.yul\":3189:3211   */\n  tag_10\n  jump\t// in\ntag_65:\n    /* \"#utility.yul\":3179:3187   */\n  dup4\n    /* \"#utility.yul\":3175:3212   */\n  add\n    /* \"#utility.yul\":3162:3173   */\n  dup3\n    /* \"#utility.yul\":3133:3213   */\n  tag_20\n  jump\t// in\ntag_64:\n    /* \"#utility.yul\":2792:3223   */\n  pop\n  pop\n    /* \"#utility.yul\":2777:3223   */\ntag_60:\n    /* \"#utility.yul\":2687:3230   */\n  pop\n  pop\n  pop\n  jump\t// out\n    /* \"#utility.yul\":3236:3353   */\ntag_22:\n    /* \"#utility.yul\":3290:3298   */\n  0x00\n    /* \"#utility.yul\":3340:3345   */\n  dup3\n    /* \"#utility.yul\":3334:3338   */\n  dup3\n    /* \"#utility.yul\":3330:3346   */\n  shr\n    /* \"#utility.yul\":3309:3346   */\n  swap1\n  pop\n    /* \"#utility.yul\":3236:3353   */\n  swap3\n  swap2\n  pop\n  pop\n  jump\t// out\n    /* \"#utility.yul\":3359:3528   */\ntag_23:\n    /* \"#utility.yul\":3403:3409   */\n  0x00\n    /* \"#utility.yul\":3436:3487   */\n  tag_68\n    /* \"#utility.yul\":3484:3485   */\n  0x00\n    /* \"#utility.yul\":3480:3486   */\n  not\n    /* \"#utility.yul\":3472:3477   */\n  dup5\n    /* \"#utility.yul\":3469:3470   */\n  0x08\n    /* \"#utility.yul\":3465:3478   */\n  mul\n    /* \"#utility.yul\":3436:3487   */\n  tag_22\n  jump\t// in\ntag_68:\n    /* \"#utility.yul\":3432:3488   */\n  not\n    /* \"#utility.yul\":3517:3521   */\n  dup1\n    /* \"#utility.yul\":3511:3515   */\n  dup4\n    /* \"#utility.yul\":3507:3522   */\n  and\n    /* \"#utility.yul\":3497:3522   */\n  swap2\n  pop\n    /* \"#utility.yul\":3410:3528   */\n  pop\n    /* \"#utility.yul\":3359:3528   */\n  swap3\n  swap2\n  pop\n  pop\n  jump\t// out\n    /* \"#utility.yul\":3533:3828   */\ntag_24:\n    /* \"#utility.yul\":3609:3613   */\n  0x00\n    /* \"#utility.yul\":3755:3784   */\n  tag_70\n    /* \"#utility.yul\":3780:3783   */\n  dup4\n    /* \"#utility.yul\":3774:3778   */\n  dup4\n    /* \"#utility.yul\":3755:3784   */\n  tag_23\n  jump\t// in\ntag_70:\n    /* \"#utility.yul\":3747:3784   */\n  swap2\n  pop\n    /* \"#utility.yul\":3817:3820   */\n  dup3\n    /* \"#utility.yul\":3814:3815   */\n  0x02\n    /* \"#utility.yul\":3810:3821   */\n  mul\n    /* \"#utility.yul\":3804:3808   */\n  dup3\n    /* \"#utility.yul\":3801:3822   */\n  or\n    /* \"#utility.yul\":3793:3822   */\n  swap1\n  pop\n    /* \"#utility.yul\":3533:3828   */\n  swap3\n  swap2\n  pop\n  pop\n  jump\t// out\n    /* \"#utility.yul\":3833:5228   */\ntag_2:\n    /* \"#utility.yul\":3950:3987   */\n  tag_72\n    /* \"#utility.yul\":3983:3986   */\n  dup3\n    /* \"#utility.yul\":3950:3987   */\n  tag_5\n  jump\t// in\ntag_72:\n    /* \"#utility.yul\":4052:4070   */\n  0xffffffffffffffff\n    /* \"#utility.yul\":4044:4050   */\n  dup2\n    /* \"#utility.yul\":4041:4071   */\n  gt\n    /* \"#utility.yul\":4038:4094   */\n  iszero\n  tag_73\n  jumpi\n    /* \"#utility.yul\":4074:4092   */\n  tag_74\n  tag_6\n  jump\t// in\ntag_74:\n    /* \"#utility.yul\":4038:4094   */\ntag_73:\n    /* \"#utility.yul\":4118:4156   */\n  tag_75\n    /* \"#utility.yul\":4150:4154   */\n  dup3\n    /* \"#utility.yul\":4144:4155   */\n  sload\n    /* \"#utility.yul\":4118:4156   */\n  tag_8\n  jump\t// in\ntag_75:\n    /* \"#utility.yul\":4203:4270   */\n  tag_76\n    /* \"#utility.yul\":4263:4269   */\n  dup3\n    /* \"#utility.yul\":4255:4261   */\n  dup3\n    /* \"#utility.yul\":4249:4253   */\n  dup6\n    /* \"#utility.yul\":4203:4270   */\n  tag_21\n  jump\t// in\ntag_76:\n    /* \"#utility.yul\":4297:4298   */\n  0x00\n    /* \"#utility.yul\":4321:4325   */\n  0x20\n    /* \"#utility.yul\":4308:4325   */\n  swap1\n  pop\n    /* \"#utility.yul\":4353:4355   */\n  0x1f\n    /* \"#utility.yul\":4345:4351   */\n  dup4\n    /* \"#utility.yul\":4342:4356   */\n  gt\n    /* \"#utility.yul\":4370:4371   */\n  0x01\n    /* \"#utility.yul\":4365:4983   */\n  dup2\n  eq\n  tag_78\n  jumpi\n    /* \"#utility.yul\":5027:5028   */\n  0x00\n    /* \"#utility.yul\":5044:5050   */\n  dup5\n    /* \"#utility.yul\":5041:5118   */\n  iszero\n  tag_79\n  jumpi\n    /* \"#utility.yul\":5093:5102   */\n  dup3\n    /* \"#utility.yul\":5088:5091   */\n  dup8\n    /* \"#utility.yul\":5084:5103   */\n  add\n    /* \"#utility.yul\":5078:5104   */\n  mload\n    /* \"#utility.yul\":5069:5104   */\n  swap1\n  pop\n    /* \"#utility.yul\":5041:5118   */\ntag_79:\n    /* \"#utility.yul\":5144:5211   */\n  tag_80\n    /* \"#utility.yul\":5204:5210   */\n  dup6\n    /* \"#utility.yul\":5197:5202   */\n  dup3\n    /* \"#utility.yul\":5144:5211   */\n  tag_24\n  jump\t// in\ntag_80:\n    /* \"#utility.yul\":5138:5142   */\n  dup7\n    /* \"#utility.yul\":5131:5212   */\n  sstore\n    /* \"#utility.yul\":5000:5222   */\n  pop\n    /* \"#utility.yul\":4335:5222   */\n  jump(tag_77)\n    /* \"#utility.yul\":4365:4983   */\ntag_78:\n    /* \"#utility.yul\":4417:4421   */\n  0x1f\n    /* \"#utility.yul\":4413:4422   */\n  not\n    /* \"#utility.yul\":4405:4411   */\n  dup5\n    /* \"#utility.yul\":4401:4423   */\n  and\n    /* \"#utility.yul\":4451:4488   */\n  tag_81\n    /* \"#utility.yul\":4483:4487   */\n  dup7\n    /* \"#utility.yul\":4451:4488   */\n  tag_9\n  jump\t// in\ntag_81:\n    /* \"#utility.yul\":4510:4511   */\n  0x00\n    /* \"#utility.yul\":4524:4732   */\ntag_82:\n    /* \"#utility.yul\":4538:4545   */\n  dup3\n    /* \"#utility.yul\":4535:4536   */\n  dup2\n    /* \"#utility.yul\":4532:4546   */\n  lt\n    /* \"#utility.yul\":4524:4732   */\n  iszero\n  tag_84\n  jumpi\n    /* \"#utility.yul\":4617:4626   */\n  dup5\n    /* \"#utility.yul\":4612:4615   */\n  dup10\n    /* \"#utility.yul\":4608:4627   */\n  add\n    /* \"#utility.yul\":4602:4628   */\n  mload\n    /* \"#utility.yul\":4594:4600   */\n  dup3\n    /* \"#utility.yul\":4587:4629   */\n  sstore\n    /* \"#utility.yul\":4668:4669   */\n  0x01\n    /* \"#utility.yul\":4660:4666   */\n  dup3\n    /* \"#utility.yul\":4656:4670   */\n  add\n    /* \"#utility.yul\":4646:4670   */\n  swap2\n  pop\n    /* \"#utility.yul\":4715:4717   */\n  0x20\n    /* \"#utility.yul\":4704:4713   */\n  dup6\n    /* \"#utility.yul\":4700:4718   */\n  add\n    /* \"#utility.yul\":4687:4718   */\n  swap5\n  pop\n    /* \"#utility.yul\":4561:4565   */\n  0x20\n    /* \"#utility.yul\":4558:4559   */\n  dup2\n    /* \"#utility.yul\":4554:4566   */\n  add\n    /* \"#utility.yul\":4549:4566   */\n  swap1\n  pop\n    /* \"#utility.yul\":4524:4732   */\n  jump(tag_82)\ntag_84:\n    /* \"#utility.yul\":4760:4766   */\n  dup7\n    /* \"#utility.yul\":4751:4758   */\n  dup4\n    /* \"#utility.yul\":4748:4767   */\n  lt\n    /* \"#utility.yul\":4745:4924   */\n  iszero\n  tag_85\n  jumpi\n    /* \"#utility.yul\":4818:4827   */\n  dup5\n    /* \"#utility.yul\":4813:4816   */\n  dup10\n    /* \"#utility.yul\":4809:4828   */\n  add\n    /* \"#utility.yul\":4803:4829   */\n  mload\n    /* \"#utility.yul\":4861:4909   */\n  tag_86\n    /* \"#utility.yul\":4903:4907   */\n  0x1f\n    /* \"#utility.yul\":4895:4901   */\n  dup10\n    /* \"#utility.yul\":4891:4908   */\n  and\n    /* \"#utility.yul\":4880:4889   */\n  dup3\n    /* \"#utility.yul\":4861:4909   */\n  tag_23\n  jump\t// in\ntag_86:\n    /* \"#utility.yul\":4853:4859   */\n  dup4\n    /* \"#utility.yul\":4846:4910   */\n  sstore\n    /* \"#utility.yul\":4768:4924   */\n  pop\n    /* \"#utility.yul\":4745:4924   */\ntag_85:\n    /* \"#utility.yul\":4970:4971   */\n  0x01\n    /* \"#utility.yul\":4966:4967   */\n  0x02\n    /* \"#utility.yul\":4958:4964   */\n  dup9\n    /* \"#utility.yul\":4954:4968   */\n  mul\n    /* \"#utility.yul\":4950:4972   */\n  add\n    /* \"#utility.yul\":4944:4948   */\n  dup9\n    /* \"#utility.yul\":4937:4973   */\n  sstore\n    /* \"#utility.yul\":4372:4983   */\n  pop\n  pop\n  pop\n    /* \"#utility.yul\":4335:5222   */\ntag_77:\n  pop\n    /* \"#utility.yul\":3925:5228   */\n  pop\n  pop\n  pop\n    /* \"#utility.yul\":3833:5228   */\n  pop\n  pop\n  jump\t// out\n    /* \"contracts/SimpleStorage1.sol\":61:1746  contract SimpleStorage {... */\ntag_4:\n  dataSize(sub_0)\n  dup1\n  dataOffset(sub_0)\n  0x00\n  codecopy\n  0x00\n  return\nstop\n\nsub_0: assembly {\n        /* \"contracts/SimpleStorage1.sol\":61:1746  contract SimpleStorage {... */\n      mstore(0x40, 0x80)\n      callvalue\n      dup1\n      iszero\n      tag_1\n      jumpi\n      0x00\n      dup1\n      revert\n    tag_1:\n      pop\n      jumpi(tag_2, lt(calldatasize, 0x04))\n      shr(0xe0, calldataload(0x00))\n      dup1\n      0x9e7a13ad\n      gt\n      tag_15\n      jumpi\n      dup1\n      0x9e7a13ad\n      eq\n      tag_9\n      jumpi\n      dup1\n      0xa621d15e\n      eq\n      tag_10\n      jumpi\n      dup1\n      0xb6339418\n      eq\n      tag_11\n      jumpi\n      dup1\n      0xbca353be\n      eq\n      tag_12\n      jumpi\n      dup1\n      0xc19d93fb\n      eq\n      tag_13\n      jumpi\n      dup1\n      0xcb6a33f8\n      eq\n      tag_14\n      jumpi\n      jump(tag_2)\n    tag_15:\n      dup1\n      0x0cd2636e\n      eq\n      tag_3\n      jumpi\n      dup1\n      0x22f3e2d4\n      eq\n      tag_4\n      jumpi\n      dup1\n      0x29cd1d96\n      eq\n      tag_5\n      jumpi\n      dup1\n      0x6f760f41\n      eq\n      tag_6\n      jumpi\n      dup1\n      0x8bab8dd5\n      eq\n      tag_7\n      jumpi\n      dup1\n      0x8fda356d\n      eq\n      tag_8\n      jumpi\n    tag_2:\n      0x00\n      dup1\n      revert\n        /* \"contracts/SimpleStorage1.sol\":801:990  function sumToFavoriteNumber() public view returns (uint256) {... */\n    tag_3:\n      tag_16\n      tag_17\n      jump\t// in\n    tag_16:\n      mload(0x40)\n      tag_18\n      swap2\n      swap1\n      tag_19\n      jump\t// in\n    tag_18:\n      mload(0x40)\n      dup1\n      swap2\n      sub\n      swap1\n      return\n        /* \"contracts/SimpleStorage1.sol\":1649:1743  function isActive() public view returns (bool) {... */\n    tag_4:\n      tag_20\n      tag_21\n      jump\t// in\n    tag_20:\n      mload(0x40)\n      tag_22\n      swap2\n      swap1\n      tag_23\n      jump\t// in\n    tag_22:\n      mload(0x40)\n      dup1\n      swap2\n      sub\n      swap1\n      return\n        /* \"contracts/SimpleStorage1.sol\":993:1025  uint256[] public favoriteNumbers */\n    tag_5:\n      tag_24\n      0x04\n      dup1\n      calldatasize\n      sub\n      dup2\n      add\n      swap1\n      tag_25\n      swap2\n      swap1\n      tag_26\n      jump\t// in\n    tag_25:\n      tag_27\n      jump\t// in\n    tag_24:\n      mload(0x40)\n      tag_28\n      swap2\n      swap1\n      tag_19\n      jump\t// in\n    tag_28:\n      mload(0x40)\n      dup1\n      swap2\n      sub\n      swap1\n      return\n        /* \"contracts/SimpleStorage1.sol\":1285:1413  function addPerson(string memory _name, uint256 _favoriteNumber) public {... */\n    tag_6:\n      tag_29\n      0x04\n      dup1\n      calldatasize\n      sub\n      dup2\n      add\n      swap1\n      tag_30\n      swap2\n      swap1\n      tag_31\n      jump\t// in\n    tag_30:\n      tag_32\n      jump\t// in\n    tag_29:\n      stop\n        /* \"contracts/SimpleStorage1.sol\":1226:1280  mapping(string => uint256) public nameToFavoriteNumber */\n    tag_7:\n      tag_33\n      0x04\n      dup1\n      calldatasize\n      sub\n      dup2\n      add\n      swap1\n      tag_34\n      swap2\n      swap1\n      tag_35\n      jump\t// in\n    tag_34:\n      tag_36\n      jump\t// in\n    tag_33:\n      mload(0x40)\n      tag_37\n      swap2\n      swap1\n      tag_19\n      jump\t// in\n    tag_37:\n      mload(0x40)\n      dup1\n      swap2\n      sub\n      swap1\n      return\n        /* \"contracts/SimpleStorage1.sol\":1489:1563  function activateContract() public {... */\n    tag_8:\n      tag_38\n      tag_39\n      jump\t// in\n    tag_38:\n      stop\n        /* \"contracts/SimpleStorage1.sol\":1201:1223  Person[] public people */\n    tag_9:\n      tag_40\n      0x04\n      dup1\n      calldatasize\n      sub\n      dup2\n      add\n      swap1\n      tag_41\n      swap2\n      swap1\n      tag_26\n      jump\t// in\n    tag_41:\n      tag_42\n      jump\t// in\n    tag_40:\n      mload(0x40)\n      tag_43\n      swap3\n      swap2\n      swap1\n      tag_44\n      jump\t// in\n    tag_43:\n      mload(0x40)\n      dup1\n      swap2\n      sub\n      swap1\n      return\n        /* \"contracts/SimpleStorage1.sol\":522:617  function getFavoriteNumber() public view returns (uint256) {... */\n    tag_10:\n      tag_45\n      tag_46\n      jump\t// in\n    tag_45:\n      mload(0x40)\n      tag_47\n      swap2\n      swap1\n      tag_19\n      jump\t// in\n    tag_47:\n      mload(0x40)\n      dup1\n      swap2\n      sub\n      swap1\n      return\n        /* \"contracts/SimpleStorage1.sol\":408:516  function storeNumber(uint256 _favoriteNumber)   public {... */\n    tag_11:\n      tag_48\n      0x04\n      dup1\n      calldatasize\n      sub\n      dup2\n      add\n      swap1\n      tag_49\n      swap2\n      swap1\n      tag_26\n      jump\t// in\n    tag_49:\n      tag_50\n      jump\t// in\n    tag_48:\n      stop\n        /* \"contracts/SimpleStorage1.sol\":1567:1645  function deactivateContract() public {... */\n    tag_12:\n      tag_51\n      tag_52\n      jump\t// in\n    tag_51:\n      stop\n        /* \"contracts/SimpleStorage1.sol\":1458:1484  ContractState public state */\n    tag_13:\n      tag_53\n      tag_54\n      jump\t// in\n    tag_53:\n      mload(0x40)\n      tag_55\n      swap2\n      swap1\n      tag_56\n      jump\t// in\n    tag_55:\n      mload(0x40)\n      dup1\n      swap2\n      sub\n      swap1\n      return\n        /* \"contracts/SimpleStorage1.sol\":621:797  function isGreaterThan(uint256 _compareValue) public view returns (bool) {... */\n    tag_14:\n      tag_57\n      0x04\n      dup1\n      calldatasize\n      sub\n      dup2\n      add\n      swap1\n      tag_58\n      swap2\n      swap1\n      tag_26\n      jump\t// in\n    tag_58:\n      tag_59\n      jump\t// in\n    tag_57:\n      mload(0x40)\n      tag_60\n      swap2\n      swap1\n      tag_23\n      jump\t// in\n    tag_60:\n      mload(0x40)\n      dup1\n      swap2\n      sub\n      swap1\n      return\n        /* \"contracts/SimpleStorage1.sol\":801:990  function sumToFavoriteNumber() public view returns (uint256) {... */\n    tag_17:\n        /* \"contracts/SimpleStorage1.sol\":853:860  uint256 */\n      0x00\n        /* \"contracts/SimpleStorage1.sol\":870:881  uint256 sum */\n      dup1\n        /* \"contracts/SimpleStorage1.sol\":884:885  0 */\n      0x00\n        /* \"contracts/SimpleStorage1.sol\":870:885  uint256 sum = 0 */\n      swap1\n      pop\n        /* \"contracts/SimpleStorage1.sol\":898:907  uint256 i */\n      0x00\n        /* \"contracts/SimpleStorage1.sol\":910:911  1 */\n      0x01\n        /* \"contracts/SimpleStorage1.sol\":898:911  uint256 i = 1 */\n      swap1\n      pop\n        /* \"contracts/SimpleStorage1.sol\":893:968  for (uint256 i = 1; i <= favoriteNumber; i++) {... */\n    tag_62:\n        /* \"contracts/SimpleStorage1.sol\":918:932  favoriteNumber */\n      sload(0x01)\n        /* \"contracts/SimpleStorage1.sol\":913:914  i */\n      dup2\n        /* \"contracts/SimpleStorage1.sol\":913:932  i <= favoriteNumber */\n      gt\n        /* \"contracts/SimpleStorage1.sol\":893:968  for (uint256 i = 1; i <= favoriteNumber; i++) {... */\n      tag_63\n      jumpi\n        /* \"contracts/SimpleStorage1.sol\":958:959  i */\n      dup1\n        /* \"contracts/SimpleStorage1.sol\":951:959  sum += i */\n      dup3\n      tag_65\n      swap2\n      swap1\n      tag_66\n      jump\t// in\n    tag_65:\n      swap2\n      pop\n        /* \"contracts/SimpleStorage1.sol\":934:937  i++ */\n      dup1\n      dup1\n      tag_67\n      swap1\n      tag_68\n      jump\t// in\n    tag_67:\n      swap2\n      pop\n      pop\n        /* \"contracts/SimpleStorage1.sol\":893:968  for (uint256 i = 1; i <= favoriteNumber; i++) {... */\n      jump(tag_62)\n    tag_63:\n      pop\n        /* \"contracts/SimpleStorage1.sol\":982:985  sum */\n      dup1\n        /* \"contracts/SimpleStorage1.sol\":975:985  return sum */\n      swap2\n      pop\n      pop\n        /* \"contracts/SimpleStorage1.sol\":801:990  function sumToFavoriteNumber() public view returns (uint256) {... */\n      swap1\n      jump\t// out\n        /* \"contracts/SimpleStorage1.sol\":1649:1743  function isActive() public view returns (bool) {... */\n    tag_21:\n        /* \"contracts/SimpleStorage1.sol\":1690:1694  bool */\n      0x00\n        /* \"contracts/SimpleStorage1.sol\":1719:1739  ContractState.Active */\n      dup1\n        /* \"contracts/SimpleStorage1.sol\":1710:1739  state == ContractState.Active */\n      0x01\n      dup2\n      gt\n      iszero\n      tag_70\n      jumpi\n      tag_71\n      tag_72\n      jump\t// in\n    tag_71:\n    tag_70:\n        /* \"contracts/SimpleStorage1.sol\":1710:1715  state */\n      0x09\n      0x00\n      swap1\n      sload\n      swap1\n      0x0100\n      exp\n      swap1\n      div\n      0xff\n      and\n        /* \"contracts/SimpleStorage1.sol\":1710:1739  state == ContractState.Active */\n      0x01\n      dup2\n      gt\n      iszero\n      tag_73\n      jumpi\n      tag_74\n      tag_72\n      jump\t// in\n    tag_74:\n    tag_73:\n      eq\n        /* \"contracts/SimpleStorage1.sol\":1703:1739  return state == ContractState.Active */\n      swap1\n      pop\n        /* \"contracts/SimpleStorage1.sol\":1649:1743  function isActive() public view returns (bool) {... */\n      swap1\n      jump\t// out\n        /* \"contracts/SimpleStorage1.sol\":993:1025  uint256[] public favoriteNumbers */\n    tag_27:\n      0x06\n      dup2\n      dup2\n      sload\n      dup2\n      lt\n      tag_75\n      jumpi\n      0x00\n      dup1\n      revert\n    tag_75:\n      swap1\n      0x00\n      mstore\n      keccak256(0x00, 0x20)\n      add\n      0x00\n      swap2\n      pop\n      swap1\n      pop\n      sload\n      dup2\n      jump\t// out\n        /* \"contracts/SimpleStorage1.sol\":1285:1413  function addPerson(string memory _name, uint256 _favoriteNumber) public {... */\n    tag_32:\n        /* \"contracts/SimpleStorage1.sol\":1394:1409  _favoriteNumber */\n      dup1\n        /* \"contracts/SimpleStorage1.sol\":1364:1384  nameToFavoriteNumber */\n      0x08\n        /* \"contracts/SimpleStorage1.sol\":1385:1390  _name */\n      dup4\n        /* \"contracts/SimpleStorage1.sol\":1364:1391  nameToFavoriteNumber[_name] */\n      mload(0x40)\n      tag_78\n      swap2\n      swap1\n      tag_79\n      jump\t// in\n    tag_78:\n      swap1\n      dup2\n      mstore\n      0x20\n      add\n      mload(0x40)\n      dup1\n      swap2\n      sub\n      swap1\n      keccak256\n        /* \"contracts/SimpleStorage1.sol\":1364:1409  nameToFavoriteNumber[_name] = _favoriteNumber */\n      dup2\n      swap1\n      sstore\n      pop\n        /* \"contracts/SimpleStorage1.sol\":1285:1413  function addPerson(string memory _name, uint256 _favoriteNumber) public {... */\n      pop\n      pop\n      jump\t// out\n        /* \"contracts/SimpleStorage1.sol\":1226:1280  mapping(string => uint256) public nameToFavoriteNumber */\n    tag_36:\n      0x08\n      dup2\n      dup1\n      mload\n      0x20\n      dup2\n      add\n      dup3\n      add\n      dup1\n      mload\n      dup5\n      dup3\n      mstore\n      0x20\n      dup4\n      add\n      0x20\n      dup6\n      add\n      keccak256\n      dup2\n      dup4\n      mstore\n      dup1\n      swap6\n      pop\n      pop\n      pop\n      pop\n      pop\n      pop\n      0x00\n      swap2\n      pop\n      swap1\n      pop\n      sload\n      dup2\n      jump\t// out\n        /* \"contracts/SimpleStorage1.sol\":1489:1563  function activateContract() public {... */\n    tag_39:\n        /* \"contracts/SimpleStorage1.sol\":1539:1559  ContractState.Active */\n      0x00\n        /* \"contracts/SimpleStorage1.sol\":1531:1536  state */\n      0x09\n      0x00\n        /* \"contracts/SimpleStorage1.sol\":1531:1559  state = ContractState.Active */\n      0x0100\n      exp\n      dup2\n      sload\n      dup2\n      0xff\n      mul\n      not\n      and\n      swap1\n      dup4\n      0x01\n      dup2\n      gt\n      iszero\n      tag_81\n      jumpi\n      tag_82\n      tag_72\n      jump\t// in\n    tag_82:\n    tag_81:\n      mul\n      or\n      swap1\n      sstore\n      pop\n        /* \"contracts/SimpleStorage1.sol\":1489:1563  function activateContract() public {... */\n      jump\t// out\n        /* \"contracts/SimpleStorage1.sol\":1201:1223  Person[] public people */\n    tag_42:\n      0x07\n      dup2\n      dup2\n      sload\n      dup2\n      lt\n      tag_83\n      jumpi\n      0x00\n      dup1\n      revert\n    tag_83:\n      swap1\n      0x00\n      mstore\n      keccak256(0x00, 0x20)\n      swap1\n      0x02\n      mul\n      add\n      0x00\n      swap2\n      pop\n      swap1\n      pop\n      dup1\n      0x00\n      add\n      dup1\n      sload\n      tag_85\n      swap1\n      tag_86\n      jump\t// in\n    tag_85:\n      dup1\n      0x1f\n      add\n      0x20\n      dup1\n      swap2\n      div\n      mul\n      0x20\n      add\n      mload(0x40)\n      swap1\n      dup2\n      add\n      0x40\n      mstore\n      dup1\n      swap3\n      swap2\n      swap1\n      dup2\n      dup2\n      mstore\n      0x20\n      add\n      dup3\n      dup1\n      sload\n      tag_87\n      swap1\n      tag_86\n      jump\t// in\n    tag_87:\n      dup1\n      iszero\n      tag_88\n      jumpi\n      dup1\n      0x1f\n      lt\n      tag_89\n      jumpi\n      0x0100\n      dup1\n      dup4\n      sload\n      div\n      mul\n      dup4\n      mstore\n      swap2\n      0x20\n      add\n      swap2\n      jump(tag_88)\n    tag_89:\n      dup3\n      add\n      swap2\n      swap1\n      0x00\n      mstore\n      keccak256(0x00, 0x20)\n      swap1\n    tag_90:\n      dup2\n      sload\n      dup2\n      mstore\n      swap1\n      0x01\n      add\n      swap1\n      0x20\n      add\n      dup1\n      dup4\n      gt\n      tag_90\n      jumpi\n      dup3\n      swap1\n      sub\n      0x1f\n      and\n      dup3\n      add\n      swap2\n    tag_88:\n      pop\n      pop\n      pop\n      pop\n      pop\n      swap1\n      dup1\n      0x01\n      add\n      sload\n      swap1\n      pop\n      dup3\n      jump\t// out\n        /* \"contracts/SimpleStorage1.sol\":522:617  function getFavoriteNumber() public view returns (uint256) {... */\n    tag_46:\n        /* \"contracts/SimpleStorage1.sol\":572:579  uint256 */\n      0x00\n        /* \"contracts/SimpleStorage1.sol\":597:611  favoriteNumber */\n      sload(0x01)\n        /* \"contracts/SimpleStorage1.sol\":590:611  return favoriteNumber */\n      swap1\n      pop\n        /* \"contracts/SimpleStorage1.sol\":522:617  function getFavoriteNumber() public view returns (uint256) {... */\n      swap1\n      jump\t// out\n        /* \"contracts/SimpleStorage1.sol\":408:516  function storeNumber(uint256 _favoriteNumber)   public {... */\n    tag_50:\n        /* \"contracts/SimpleStorage1.sol\":495:510  _favoriteNumber */\n      dup1\n        /* \"contracts/SimpleStorage1.sol\":478:492  favoriteNumber */\n      0x01\n        /* \"contracts/SimpleStorage1.sol\":478:510  favoriteNumber = _favoriteNumber */\n      dup2\n      swap1\n      sstore\n      pop\n        /* \"contracts/SimpleStorage1.sol\":408:516  function storeNumber(uint256 _favoriteNumber)   public {... */\n      pop\n      jump\t// out\n        /* \"contracts/SimpleStorage1.sol\":1567:1645  function deactivateContract() public {... */\n    tag_52:\n        /* \"contracts/SimpleStorage1.sol\":1619:1641  ContractState.Inactive */\n      0x01\n        /* \"contracts/SimpleStorage1.sol\":1611:1616  state */\n      0x09\n      0x00\n        /* \"contracts/SimpleStorage1.sol\":1611:1641  state = ContractState.Inactive */\n      0x0100\n      exp\n      dup2\n      sload\n      dup2\n      0xff\n      mul\n      not\n      and\n      swap1\n      dup4\n      0x01\n      dup2\n      gt\n      iszero\n      tag_94\n      jumpi\n      tag_95\n      tag_72\n      jump\t// in\n    tag_95:\n    tag_94:\n      mul\n      or\n      swap1\n      sstore\n      pop\n        /* \"contracts/SimpleStorage1.sol\":1567:1645  function deactivateContract() public {... */\n      jump\t// out\n        /* \"contracts/SimpleStorage1.sol\":1458:1484  ContractState public state */\n    tag_54:\n      0x09\n      0x00\n      swap1\n      sload\n      swap1\n      0x0100\n      exp\n      swap1\n      div\n      0xff\n      and\n      dup2\n      jump\t// out\n        /* \"contracts/SimpleStorage1.sol\":621:797  function isGreaterThan(uint256 _compareValue) public view returns (bool) {... */\n    tag_59:\n        /* \"contracts/SimpleStorage1.sol\":688:692  bool */\n      0x00\n        /* \"contracts/SimpleStorage1.sol\":720:733  _compareValue */\n      dup2\n        /* \"contracts/SimpleStorage1.sol\":703:717  favoriteNumber */\n      sload(0x01)\n        /* \"contracts/SimpleStorage1.sol\":703:733  favoriteNumber > _compareValue */\n      gt\n        /* \"contracts/SimpleStorage1.sol\":699:794  if (favoriteNumber > _compareValue) {... */\n      iszero\n      tag_97\n      jumpi\n        /* \"contracts/SimpleStorage1.sol\":751:755  true */\n      0x01\n        /* \"contracts/SimpleStorage1.sol\":744:755  return true */\n      swap1\n      pop\n      jump(tag_96)\n        /* \"contracts/SimpleStorage1.sol\":699:794  if (favoriteNumber > _compareValue) {... */\n    tag_97:\n        /* \"contracts/SimpleStorage1.sol\":783:788  false */\n      0x00\n        /* \"contracts/SimpleStorage1.sol\":776:788  return false */\n      swap1\n      pop\n        /* \"contracts/SimpleStorage1.sol\":621:797  function isGreaterThan(uint256 _compareValue) public view returns (bool) {... */\n    tag_96:\n      swap2\n      swap1\n      pop\n      jump\t// out\n        /* \"#utility.yul\":7:84   */\n    tag_99:\n        /* \"#utility.yul\":44:51   */\n      0x00\n        /* \"#utility.yul\":73:78   */\n      dup2\n        /* \"#utility.yul\":62:78   */\n      swap1\n      pop\n        /* \"#utility.yul\":7:84   */\n      swap2\n      swap1\n      pop\n      jump\t// out\n        /* \"#utility.yul\":90:208   */\n    tag_100:\n        /* \"#utility.yul\":177:201   */\n      tag_133\n        /* \"#utility.yul\":195:200   */\n      dup2\n        /* \"#utility.yul\":177:201   */\n      tag_99\n      jump\t// in\n    tag_133:\n        /* \"#utility.yul\":172:175   */\n      dup3\n        /* \"#utility.yul\":165:202   */\n      mstore\n        /* \"#utility.yul\":90:208   */\n      pop\n      pop\n      jump\t// out\n        /* \"#utility.yul\":214:436   */\n    tag_19:\n        /* \"#utility.yul\":307:311   */\n      0x00\n        /* \"#utility.yul\":345:347   */\n      0x20\n        /* \"#utility.yul\":334:343   */\n      dup3\n        /* \"#utility.yul\":330:348   */\n      add\n        /* \"#utility.yul\":322:348   */\n      swap1\n      pop\n        /* \"#utility.yul\":358:429   */\n      tag_135\n        /* \"#utility.yul\":426:427   */\n      0x00\n        /* \"#utility.yul\":415:424   */\n      dup4\n        /* \"#utility.yul\":411:428   */\n      add\n        /* \"#utility.yul\":402:408   */\n      dup5\n        /* \"#utility.yul\":358:429   */\n      tag_100\n      jump\t// in\n    tag_135:\n        /* \"#utility.yul\":214:436   */\n      swap3\n      swap2\n      pop\n      pop\n      jump\t// out\n        /* \"#utility.yul\":442:532   */\n    tag_101:\n        /* \"#utility.yul\":476:483   */\n      0x00\n        /* \"#utility.yul\":519:524   */\n      dup2\n        /* \"#utility.yul\":512:525   */\n      iszero\n        /* \"#utility.yul\":505:526   */\n      iszero\n        /* \"#utility.yul\":494:526   */\n      swap1\n      pop\n        /* \"#utility.yul\":442:532   */\n      swap2\n      swap1\n      pop\n      jump\t// out\n        /* \"#utility.yul\":538:647   */\n    tag_102:\n        /* \"#utility.yul\":619:640   */\n      tag_138\n        /* \"#utility.yul\":634:639   */\n      dup2\n        /* \"#utility.yul\":619:640   */\n      tag_101\n      jump\t// in\n    tag_138:\n        /* \"#utility.yul\":614:617   */\n      dup3\n        /* \"#utility.yul\":607:641   */\n      mstore\n        /* \"#utility.yul\":538:647   */\n      pop\n      pop\n      jump\t// out\n        /* \"#utility.yul\":653:863   */\n    tag_23:\n        /* \"#utility.yul\":740:744   */\n      0x00\n        /* \"#utility.yul\":778:780   */\n      0x20\n        /* \"#utility.yul\":767:776   */\n      dup3\n        /* \"#utility.yul\":763:781   */\n      add\n        /* \"#utility.yul\":755:781   */\n      swap1\n      pop\n        /* \"#utility.yul\":791:856   */\n      tag_140\n        /* \"#utility.yul\":853:854   */\n      0x00\n        /* \"#utility.yul\":842:851   */\n      dup4\n        /* \"#utility.yul\":838:855   */\n      add\n        /* \"#utility.yul\":829:835   */\n      dup5\n        /* \"#utility.yul\":791:856   */\n      tag_102\n      jump\t// in\n    tag_140:\n        /* \"#utility.yul\":653:863   */\n      swap3\n      swap2\n      pop\n      pop\n      jump\t// out\n        /* \"#utility.yul\":869:944   */\n    tag_103:\n        /* \"#utility.yul\":902:908   */\n      0x00\n        /* \"#utility.yul\":935:937   */\n      0x40\n        /* \"#utility.yul\":929:938   */\n      mload\n        /* \"#utility.yul\":919:938   */\n      swap1\n      pop\n        /* \"#utility.yul\":869:944   */\n      swap1\n      jump\t// out\n        /* \"#utility.yul\":950:1067   */\n    tag_104:\n        /* \"#utility.yul\":1059:1060   */\n      0x00\n        /* \"#utility.yul\":1056:1057   */\n      dup1\n        /* \"#utility.yul\":1049:1061   */\n      revert\n        /* \"#utility.yul\":1073:1190   */\n    tag_105:\n        /* \"#utility.yul\":1182:1183   */\n      0x00\n        /* \"#utility.yul\":1179:1180   */\n      dup1\n        /* \"#utility.yul\":1172:1184   */\n      revert\n        /* \"#utility.yul\":1196:1318   */\n    tag_106:\n        /* \"#utility.yul\":1269:1293   */\n      tag_145\n        /* \"#utility.yul\":1287:1292   */\n      dup2\n        /* \"#utility.yul\":1269:1293   */\n      tag_99\n      jump\t// in\n    tag_145:\n        /* \"#utility.yul\":1262:1267   */\n      dup2\n        /* \"#utility.yul\":1259:1294   */\n      eq\n        /* \"#utility.yul\":1249:1312   */\n      tag_146\n      jumpi\n        /* \"#utility.yul\":1308:1309   */\n      0x00\n        /* \"#utility.yul\":1305:1306   */\n      dup1\n        /* \"#utility.yul\":1298:1310   */\n      revert\n        /* \"#utility.yul\":1249:1312   */\n    tag_146:\n        /* \"#utility.yul\":1196:1318   */\n      pop\n      jump\t// out\n        /* \"#utility.yul\":1324:1463   */\n    tag_107:\n        /* \"#utility.yul\":1370:1375   */\n      0x00\n        /* \"#utility.yul\":1408:1414   */\n      dup2\n        /* \"#utility.yul\":1395:1415   */\n      calldataload\n        /* \"#utility.yul\":1386:1415   */\n      swap1\n      pop\n        /* \"#utility.yul\":1424:1457   */\n      tag_148\n        /* \"#utility.yul\":1451:1456   */\n      dup2\n        /* \"#utility.yul\":1424:1457   */\n      tag_106\n      jump\t// in\n    tag_148:\n        /* \"#utility.yul\":1324:1463   */\n      swap3\n      swap2\n      pop\n      pop\n      jump\t// out\n        /* \"#utility.yul\":1469:1798   */\n    tag_26:\n        /* \"#utility.yul\":1528:1534   */\n      0x00\n        /* \"#utility.yul\":1577:1579   */\n      0x20\n        /* \"#utility.yul\":1565:1574   */\n      dup3\n        /* \"#utility.yul\":1556:1563   */\n      dup5\n        /* \"#utility.yul\":1552:1575   */\n      sub\n        /* \"#utility.yul\":1548:1580   */\n      slt\n        /* \"#utility.yul\":1545:1664   */\n      iszero\n      tag_150\n      jumpi\n        /* \"#utility.yul\":1583:1662   */\n      tag_151\n      tag_104\n      jump\t// in\n    tag_151:\n        /* \"#utility.yul\":1545:1664   */\n    tag_150:\n        /* \"#utility.yul\":1703:1704   */\n      0x00\n        /* \"#utility.yul\":1728:1781   */\n      tag_152\n        /* \"#utility.yul\":1773:1780   */\n      dup5\n        /* \"#utility.yul\":1764:1770   */\n      dup3\n        /* \"#utility.yul\":1753:1762   */\n      dup6\n        /* \"#utility.yul\":1749:1771   */\n      add\n        /* \"#utility.yul\":1728:1781   */\n      tag_107\n      jump\t// in\n    tag_152:\n        /* \"#utility.yul\":1718:1781   */\n      swap2\n      pop\n        /* \"#utility.yul\":1674:1791   */\n      pop\n        /* \"#utility.yul\":1469:1798   */\n      swap3\n      swap2\n      pop\n      pop\n      jump\t// out\n        /* \"#utility.yul\":1804:1921   */\n    tag_108:\n        /* \"#utility.yul\":1913:1914   */\n      0x00\n        /* \"#utility.yul\":1910:1911   */\n      dup1\n        /* \"#utility.yul\":1903:1915   */\n      revert\n        /* \"#utility.yul\":1927:2044   */\n    tag_109:\n        /* \"#utility.yul\":2036:2037   */\n      0x00\n        /* \"#utility.yul\":2033:2034   */\n      dup1\n        /* \"#utility.yul\":2026:2038   */\n      revert\n        /* \"#utility.yul\":2050:2152   */\n    tag_110:\n        /* \"#utility.yul\":2091:2097   */\n      0x00\n        /* \"#utility.yul\":2142:2144   */\n      0x1f\n        /* \"#utility.yul\":2138:2145   */\n      not\n        /* \"#utility.yul\":2133:2135   */\n      0x1f\n        /* \"#utility.yul\":2126:2131   */\n      dup4\n        /* \"#utility.yul\":2122:2136   */\n      add\n        /* \"#utility.yul\":2118:2146   */\n      and\n        /* \"#utility.yul\":2108:2146   */\n      swap1\n      pop\n        /* \"#utility.yul\":2050:2152   */\n      swap2\n      swap1\n      pop\n      jump\t// out\n        /* \"#utility.yul\":2158:2338   */\n    tag_111:\n        /* \"#utility.yul\":2206:2283   */\n      0x4e487b7100000000000000000000000000000000000000000000000000000000\n        /* \"#utility.yul\":2203:2204   */\n      0x00\n        /* \"#utility.yul\":2196:2284   */\n      mstore\n        /* \"#utility.yul\":2303:2307   */\n      0x41\n        /* \"#utility.yul\":2300:2301   */\n      0x04\n        /* \"#utility.yul\":2293:2308   */\n      mstore\n        /* \"#utility.yul\":2327:2331   */\n      0x24\n        /* \"#utility.yul\":2324:2325   */\n      0x00\n        /* \"#utility.yul\":2317:2332   */\n      revert\n        /* \"#utility.yul\":2344:2625   */\n    tag_112:\n        /* \"#utility.yul\":2427:2454   */\n      tag_158\n        /* \"#utility.yul\":2449:2453   */\n      dup3\n        /* \"#utility.yul\":2427:2454   */\n      tag_110\n      jump\t// in\n    tag_158:\n        /* \"#utility.yul\":2419:2425   */\n      dup2\n        /* \"#utility.yul\":2415:2455   */\n      add\n        /* \"#utility.yul\":2557:2563   */\n      dup2\n        /* \"#utility.yul\":2545:2555   */\n      dup2\n        /* \"#utility.yul\":2542:2564   */\n      lt\n        /* \"#utility.yul\":2521:2539   */\n      0xffffffffffffffff\n        /* \"#utility.yul\":2509:2519   */\n      dup3\n        /* \"#utility.yul\":2506:2540   */\n      gt\n        /* \"#utility.yul\":2503:2565   */\n      or\n        /* \"#utility.yul\":2500:2588   */\n      iszero\n      tag_159\n      jumpi\n        /* \"#utility.yul\":2568:2586   */\n      tag_160\n      tag_111\n      jump\t// in\n    tag_160:\n        /* \"#utility.yul\":2500:2588   */\n    tag_159:\n        /* \"#utility.yul\":2608:2618   */\n      dup1\n        /* \"#utility.yul\":2604:2606   */\n      0x40\n        /* \"#utility.yul\":2597:2619   */\n      mstore\n        /* \"#utility.yul\":2387:2625   */\n      pop\n        /* \"#utility.yul\":2344:2625   */\n      pop\n      pop\n      jump\t// out\n        /* \"#utility.yul\":2631:2760   */\n    tag_113:\n        /* \"#utility.yul\":2665:2671   */\n      0x00\n        /* \"#utility.yul\":2692:2712   */\n      tag_162\n      tag_103\n      jump\t// in\n    tag_162:\n        /* \"#utility.yul\":2682:2712   */\n      swap1\n      pop\n        /* \"#utility.yul\":2721:2754   */\n      tag_163\n        /* \"#utility.yul\":2749:2753   */\n      dup3\n        /* \"#utility.yul\":2741:2747   */\n      dup3\n        /* \"#utility.yul\":2721:2754   */\n      tag_112\n      jump\t// in\n    tag_163:\n        /* \"#utility.yul\":2631:2760   */\n      swap2\n      swap1\n      pop\n      jump\t// out\n        /* \"#utility.yul\":2766:3074   */\n    tag_114:\n        /* \"#utility.yul\":2828:2832   */\n      0x00\n        /* \"#utility.yul\":2918:2936   */\n      0xffffffffffffffff\n        /* \"#utility.yul\":2910:2916   */\n      dup3\n        /* \"#utility.yul\":2907:2937   */\n      gt\n        /* \"#utility.yul\":2904:2960   */\n      iszero\n      tag_165\n      jumpi\n        /* \"#utility.yul\":2940:2958   */\n      tag_166\n      tag_111\n      jump\t// in\n    tag_166:\n        /* \"#utility.yul\":2904:2960   */\n    tag_165:\n        /* \"#utility.yul\":2978:3007   */\n      tag_167\n        /* \"#utility.yul\":3000:3006   */\n      dup3\n        /* \"#utility.yul\":2978:3007   */\n      tag_110\n      jump\t// in\n    tag_167:\n        /* \"#utility.yul\":2970:3007   */\n      swap1\n      pop\n        /* \"#utility.yul\":3062:3066   */\n      0x20\n        /* \"#utility.yul\":3056:3060   */\n      dup2\n        /* \"#utility.yul\":3052:3067   */\n      add\n        /* \"#utility.yul\":3044:3067   */\n      swap1\n      pop\n        /* \"#utility.yul\":2766:3074   */\n      swap2\n      swap1\n      pop\n      jump\t// out\n        /* \"#utility.yul\":3080:3228   */\n    tag_115:\n        /* \"#utility.yul\":3178:3184   */\n      dup3\n        /* \"#utility.yul\":3173:3176   */\n      dup2\n        /* \"#utility.yul\":3168:3171   */\n      dup4\n        /* \"#utility.yul\":3155:3185   */\n      calldatacopy\n        /* \"#utility.yul\":3219:3220   */\n      0x00\n        /* \"#utility.yul\":3210:3216   */\n      dup4\n        /* \"#utility.yul\":3205:3208   */\n      dup4\n        /* \"#utility.yul\":3201:3217   */\n      add\n        /* \"#utility.yul\":3194:3221   */\n      mstore\n        /* \"#utility.yul\":3080:3228   */\n      pop\n      pop\n      pop\n      jump\t// out\n        /* \"#utility.yul\":3234:3659   */\n    tag_116:\n        /* \"#utility.yul\":3312:3317   */\n      0x00\n        /* \"#utility.yul\":3337:3403   */\n      tag_170\n        /* \"#utility.yul\":3353:3402   */\n      tag_171\n        /* \"#utility.yul\":3395:3401   */\n      dup5\n        /* \"#utility.yul\":3353:3402   */\n      tag_114\n      jump\t// in\n    tag_171:\n        /* \"#utility.yul\":3337:3403   */\n      tag_113\n      jump\t// in\n    tag_170:\n        /* \"#utility.yul\":3328:3403   */\n      swap1\n      pop\n        /* \"#utility.yul\":3426:3432   */\n      dup3\n        /* \"#utility.yul\":3419:3424   */\n      dup2\n        /* \"#utility.yul\":3412:3433   */\n      mstore\n        /* \"#utility.yul\":3464:3468   */\n      0x20\n        /* \"#utility.yul\":3457:3462   */\n      dup2\n        /* \"#utility.yul\":3453:3469   */\n      add\n        /* \"#utility.yul\":3502:3505   */\n      dup5\n        /* \"#utility.yul\":3493:3499   */\n      dup5\n        /* \"#utility.yul\":3488:3491   */\n      dup5\n        /* \"#utility.yul\":3484:3500   */\n      add\n        /* \"#utility.yul\":3481:3506   */\n      gt\n        /* \"#utility.yul\":3478:3590   */\n      iszero\n      tag_172\n      jumpi\n        /* \"#utility.yul\":3509:3588   */\n      tag_173\n      tag_109\n      jump\t// in\n    tag_173:\n        /* \"#utility.yul\":3478:3590   */\n    tag_172:\n        /* \"#utility.yul\":3599:3653   */\n      tag_174\n        /* \"#utility.yul\":3646:3652   */\n      dup5\n        /* \"#utility.yul\":3641:3644   */\n      dup3\n        /* \"#utility.yul\":3636:3639   */\n      dup6\n        /* \"#utility.yul\":3599:3653   */\n      tag_115\n      jump\t// in\n    tag_174:\n        /* \"#utility.yul\":3318:3659   */\n      pop\n        /* \"#utility.yul\":3234:3659   */\n      swap4\n      swap3\n      pop\n      pop\n      pop\n      jump\t// out\n        /* \"#utility.yul\":3679:4019   */\n    tag_117:\n        /* \"#utility.yul\":3735:3740   */\n      0x00\n        /* \"#utility.yul\":3784:3787   */\n      dup3\n        /* \"#utility.yul\":3777:3781   */\n      0x1f\n        /* \"#utility.yul\":3769:3775   */\n      dup4\n        /* \"#utility.yul\":3765:3782   */\n      add\n        /* \"#utility.yul\":3761:3788   */\n      slt\n        /* \"#utility.yul\":3751:3873   */\n      tag_176\n      jumpi\n        /* \"#utility.yul\":3792:3871   */\n      tag_177\n      tag_108\n      jump\t// in\n    tag_177:\n        /* \"#utility.yul\":3751:3873   */\n    tag_176:\n        /* \"#utility.yul\":3909:3915   */\n      dup2\n        /* \"#utility.yul\":3896:3916   */\n      calldataload\n        /* \"#utility.yul\":3934:4013   */\n      tag_178\n        /* \"#utility.yul\":4009:4012   */\n      dup5\n        /* \"#utility.yul\":4001:4007   */\n      dup3\n        /* \"#utility.yul\":3994:3998   */\n      0x20\n        /* \"#utility.yul\":3986:3992   */\n      dup7\n        /* \"#utility.yul\":3982:3999   */\n      add\n        /* \"#utility.yul\":3934:4013   */\n      tag_116\n      jump\t// in\n    tag_178:\n        /* \"#utility.yul\":3925:4013   */\n      swap2\n      pop\n        /* \"#utility.yul\":3741:4019   */\n      pop\n        /* \"#utility.yul\":3679:4019   */\n      swap3\n      swap2\n      pop\n      pop\n      jump\t// out\n        /* \"#utility.yul\":4025:4679   */\n    tag_31:\n        /* \"#utility.yul\":4103:4109   */\n      0x00\n        /* \"#utility.yul\":4111:4117   */\n      dup1\n        /* \"#utility.yul\":4160:4162   */\n      0x40\n        /* \"#utility.yul\":4148:4157   */\n      dup4\n        /* \"#utility.yul\":4139:4146   */\n      dup6\n        /* \"#utility.yul\":4135:4158   */\n      sub\n        /* \"#utility.yul\":4131:4163   */\n      slt\n        /* \"#utility.yul\":4128:4247   */\n      iszero\n      tag_180\n      jumpi\n        /* \"#utility.yul\":4166:4245   */\n      tag_181\n      tag_104\n      jump\t// in\n    tag_181:\n        /* \"#utility.yul\":4128:4247   */\n    tag_180:\n        /* \"#utility.yul\":4314:4315   */\n      0x00\n        /* \"#utility.yul\":4303:4312   */\n      dup4\n        /* \"#utility.yul\":4299:4316   */\n      add\n        /* \"#utility.yul\":4286:4317   */\n      calldataload\n        /* \"#utility.yul\":4344:4362   */\n      0xffffffffffffffff\n        /* \"#utility.yul\":4336:4342   */\n      dup2\n        /* \"#utility.yul\":4333:4363   */\n      gt\n        /* \"#utility.yul\":4330:4447   */\n      iszero\n      tag_182\n      jumpi\n        /* \"#utility.yul\":4366:4445   */\n      tag_183\n      tag_105\n      jump\t// in\n    tag_183:\n        /* \"#utility.yul\":4330:4447   */\n    tag_182:\n        /* \"#utility.yul\":4471:4534   */\n      tag_184\n        /* \"#utility.yul\":4526:4533   */\n      dup6\n        /* \"#utility.yul\":4517:4523   */\n      dup3\n        /* \"#utility.yul\":4506:4515   */\n      dup7\n        /* \"#utility.yul\":4502:4524   */\n      add\n        /* \"#utility.yul\":4471:4534   */\n      tag_117\n      jump\t// in\n    tag_184:\n        /* \"#utility.yul\":4461:4534   */\n      swap3\n      pop\n        /* \"#utility.yul\":4257:4544   */\n      pop\n        /* \"#utility.yul\":4583:4585   */\n      0x20\n        /* \"#utility.yul\":4609:4662   */\n      tag_185\n        /* \"#utility.yul\":4654:4661   */\n      dup6\n        /* \"#utility.yul\":4645:4651   */\n      dup3\n        /* \"#utility.yul\":4634:4643   */\n      dup7\n        /* \"#utility.yul\":4630:4652   */\n      add\n        /* \"#utility.yul\":4609:4662   */\n      tag_107\n      jump\t// in\n    tag_185:\n        /* \"#utility.yul\":4599:4662   */\n      swap2\n      pop\n        /* \"#utility.yul\":4554:4672   */\n      pop\n        /* \"#utility.yul\":4025:4679   */\n      swap3\n      pop\n      swap3\n      swap1\n      pop\n      jump\t// out\n        /* \"#utility.yul\":4685:5194   */\n    tag_35:\n        /* \"#utility.yul\":4754:4760   */\n      0x00\n        /* \"#utility.yul\":4803:4805   */\n      0x20\n        /* \"#utility.yul\":4791:4800   */\n      dup3\n        /* \"#utility.yul\":4782:4789   */\n      dup5\n        /* \"#utility.yul\":4778:4801   */\n      sub\n        /* \"#utility.yul\":4774:4806   */\n      slt\n        /* \"#utility.yul\":4771:4890   */\n      iszero\n      tag_187\n      jumpi\n        /* \"#utility.yul\":4809:4888   */\n      tag_188\n      tag_104\n      jump\t// in\n    tag_188:\n        /* \"#utility.yul\":4771:4890   */\n    tag_187:\n        /* \"#utility.yul\":4957:4958   */\n      0x00\n        /* \"#utility.yul\":4946:4955   */\n      dup3\n        /* \"#utility.yul\":4942:4959   */\n      add\n        /* \"#utility.yul\":4929:4960   */\n      calldataload\n        /* \"#utility.yul\":4987:5005   */\n      0xffffffffffffffff\n        /* \"#utility.yul\":4979:4985   */\n      dup2\n        /* \"#utility.yul\":4976:5006   */\n      gt\n        /* \"#utility.yul\":4973:5090   */\n      iszero\n      tag_189\n      jumpi\n        /* \"#utility.yul\":5009:5088   */\n      tag_190\n      tag_105\n      jump\t// in\n    tag_190:\n        /* \"#utility.yul\":4973:5090   */\n    tag_189:\n        /* \"#utility.yul\":5114:5177   */\n      tag_191\n        /* \"#utility.yul\":5169:5176   */\n      dup5\n        /* \"#utility.yul\":5160:5166   */\n      dup3\n        /* \"#utility.yul\":5149:5158   */\n      dup6\n        /* \"#utility.yul\":5145:5167   */\n      add\n        /* \"#utility.yul\":5114:5177   */\n      tag_117\n      jump\t// in\n    tag_191:\n        /* \"#utility.yul\":5104:5177   */\n      swap2\n      pop\n        /* \"#utility.yul\":4900:5187   */\n      pop\n        /* \"#utility.yul\":4685:5194   */\n      swap3\n      swap2\n      pop\n      pop\n      jump\t// out\n        /* \"#utility.yul\":5200:5299   */\n    tag_118:\n        /* \"#utility.yul\":5252:5258   */\n      0x00\n        /* \"#utility.yul\":5286:5291   */\n      dup2\n        /* \"#utility.yul\":5280:5292   */\n      mload\n        /* \"#utility.yul\":5270:5292   */\n      swap1\n      pop\n        /* \"#utility.yul\":5200:5299   */\n      swap2\n      swap1\n      pop\n      jump\t// out\n        /* \"#utility.yul\":5305:5474   */\n    tag_119:\n        /* \"#utility.yul\":5389:5400   */\n      0x00\n        /* \"#utility.yul\":5423:5429   */\n      dup3\n        /* \"#utility.yul\":5418:5421   */\n      dup3\n        /* \"#utility.yul\":5411:5430   */\n      mstore\n        /* \"#utility.yul\":5463:5467   */\n      0x20\n        /* \"#utility.yul\":5458:5461   */\n      dup3\n        /* \"#utility.yul\":5454:5468   */\n      add\n        /* \"#utility.yul\":5439:5468   */\n      swap1\n      pop\n        /* \"#utility.yul\":5305:5474   */\n      swap3\n      swap2\n      pop\n      pop\n      jump\t// out\n        /* \"#utility.yul\":5480:5619   */\n    tag_120:\n        /* \"#utility.yul\":5569:5575   */\n      dup3\n        /* \"#utility.yul\":5564:5567   */\n      dup2\n        /* \"#utility.yul\":5559:5562   */\n      dup4\n        /* \"#utility.yul\":5553:5576   */\n      mcopy\n        /* \"#utility.yul\":5610:5611   */\n      0x00\n        /* \"#utility.yul\":5601:5607   */\n      dup4\n        /* \"#utility.yul\":5596:5599   */\n      dup4\n        /* \"#utility.yul\":5592:5608   */\n      add\n        /* \"#utility.yul\":5585:5612   */\n      mstore\n        /* \"#utility.yul\":5480:5619   */\n      pop\n      pop\n      pop\n      jump\t// out\n        /* \"#utility.yul\":5625:6002   */\n    tag_121:\n        /* \"#utility.yul\":5713:5716   */\n      0x00\n        /* \"#utility.yul\":5741:5780   */\n      tag_196\n        /* \"#utility.yul\":5774:5779   */\n      dup3\n        /* \"#utility.yul\":5741:5780   */\n      tag_118\n      jump\t// in\n    tag_196:\n        /* \"#utility.yul\":5796:5867   */\n      tag_197\n        /* \"#utility.yul\":5860:5866   */\n      dup2\n        /* \"#utility.yul\":5855:5858   */\n      dup6\n        /* \"#utility.yul\":5796:5867   */\n      tag_119\n      jump\t// in\n    tag_197:\n        /* \"#utility.yul\":5789:5867   */\n      swap4\n      pop\n        /* \"#utility.yul\":5876:5941   */\n      tag_198\n        /* \"#utility.yul\":5934:5940   */\n      dup2\n        /* \"#utility.yul\":5929:5932   */\n      dup6\n        /* \"#utility.yul\":5922:5926   */\n      0x20\n        /* \"#utility.yul\":5915:5920   */\n      dup7\n        /* \"#utility.yul\":5911:5927   */\n      add\n        /* \"#utility.yul\":5876:5941   */\n      tag_120\n      jump\t// in\n    tag_198:\n        /* \"#utility.yul\":5966:5995   */\n      tag_199\n        /* \"#utility.yul\":5988:5994   */\n      dup2\n        /* \"#utility.yul\":5966:5995   */\n      tag_110\n      jump\t// in\n    tag_199:\n        /* \"#utility.yul\":5961:5964   */\n      dup5\n        /* \"#utility.yul\":5957:5996   */\n      add\n        /* \"#utility.yul\":5950:5996   */\n      swap2\n      pop\n        /* \"#utility.yul\":5717:6002   */\n      pop\n        /* \"#utility.yul\":5625:6002   */\n      swap3\n      swap2\n      pop\n      pop\n      jump\t// out\n        /* \"#utility.yul\":6008:6431   */\n    tag_44:\n        /* \"#utility.yul\":6149:6153   */\n      0x00\n        /* \"#utility.yul\":6187:6189   */\n      0x40\n        /* \"#utility.yul\":6176:6185   */\n      dup3\n        /* \"#utility.yul\":6172:6190   */\n      add\n        /* \"#utility.yul\":6164:6190   */\n      swap1\n      pop\n        /* \"#utility.yul\":6236:6245   */\n      dup2\n        /* \"#utility.yul\":6230:6234   */\n      dup2\n        /* \"#utility.yul\":6226:6246   */\n      sub\n        /* \"#utility.yul\":6222:6223   */\n      0x00\n        /* \"#utility.yul\":6211:6220   */\n      dup4\n        /* \"#utility.yul\":6207:6224   */\n      add\n        /* \"#utility.yul\":6200:6247   */\n      mstore\n        /* \"#utility.yul\":6264:6342   */\n      tag_201\n        /* \"#utility.yul\":6337:6341   */\n      dup2\n        /* \"#utility.yul\":6328:6334   */\n      dup6\n        /* \"#utility.yul\":6264:6342   */\n      tag_121\n      jump\t// in\n    tag_201:\n        /* \"#utility.yul\":6256:6342   */\n      swap1\n      pop\n        /* \"#utility.yul\":6352:6424   */\n      tag_202\n        /* \"#utility.yul\":6420:6422   */\n      0x20\n        /* \"#utility.yul\":6409:6418   */\n      dup4\n        /* \"#utility.yul\":6405:6423   */\n      add\n        /* \"#utility.yul\":6396:6402   */\n      dup5\n        /* \"#utility.yul\":6352:6424   */\n      tag_100\n      jump\t// in\n    tag_202:\n        /* \"#utility.yul\":6008:6431   */\n      swap4\n      swap3\n      pop\n      pop\n      pop\n      jump\t// out\n        /* \"#utility.yul\":6437:6617   */\n    tag_72:\n        /* \"#utility.yul\":6485:6562   */\n      0x4e487b7100000000000000000000000000000000000000000000000000000000\n        /* \"#utility.yul\":6482:6483   */\n      0x00\n        /* \"#utility.yul\":6475:6563   */\n      mstore\n        /* \"#utility.yul\":6582:6586   */\n      0x21\n        /* \"#utility.yul\":6579:6580   */\n      0x04\n        /* \"#utility.yul\":6572:6587   */\n      mstore\n        /* \"#utility.yul\":6606:6610   */\n      0x24\n        /* \"#utility.yul\":6603:6604   */\n      0x00\n        /* \"#utility.yul\":6596:6611   */\n      revert\n        /* \"#utility.yul\":6623:6745   */\n    tag_122:\n        /* \"#utility.yul\":6713:6714   */\n      0x02\n        /* \"#utility.yul\":6706:6711   */\n      dup2\n        /* \"#utility.yul\":6703:6715   */\n      lt\n        /* \"#utility.yul\":6693:6739   */\n      tag_205\n      jumpi\n        /* \"#utility.yul\":6719:6737   */\n      tag_206\n      tag_72\n      jump\t// in\n    tag_206:\n        /* \"#utility.yul\":6693:6739   */\n    tag_205:\n        /* \"#utility.yul\":6623:6745   */\n      pop\n      jump\t// out\n        /* \"#utility.yul\":6751:6896   */\n    tag_123:\n        /* \"#utility.yul\":6805:6812   */\n      0x00\n        /* \"#utility.yul\":6834:6839   */\n      dup2\n        /* \"#utility.yul\":6823:6839   */\n      swap1\n      pop\n        /* \"#utility.yul\":6840:6890   */\n      tag_208\n        /* \"#utility.yul\":6884:6889   */\n      dup3\n        /* \"#utility.yul\":6840:6890   */\n      tag_122\n      jump\t// in\n    tag_208:\n        /* \"#utility.yul\":6751:6896   */\n      swap2\n      swap1\n      pop\n      jump\t// out\n        /* \"#utility.yul\":6902:7047   */\n    tag_124:\n        /* \"#utility.yul\":6967:6976   */\n      0x00\n        /* \"#utility.yul\":7000:7041   */\n      tag_210\n        /* \"#utility.yul\":7035:7040   */\n      dup3\n        /* \"#utility.yul\":7000:7041   */\n      tag_123\n      jump\t// in\n    tag_210:\n        /* \"#utility.yul\":6987:7041   */\n      swap1\n      pop\n        /* \"#utility.yul\":6902:7047   */\n      swap2\n      swap1\n      pop\n      jump\t// out\n        /* \"#utility.yul\":7053:7214   */\n    tag_125:\n        /* \"#utility.yul\":7155:7207   */\n      tag_212\n        /* \"#utility.yul\":7201:7206   */\n      dup2\n        /* \"#utility.yul\":7155:7207   */\n      tag_124\n      jump\t// in\n    tag_212:\n        /* \"#utility.yul\":7150:7153   */\n      dup3\n        /* \"#utility.yul\":7143:7208   */\n      mstore\n        /* \"#utility.yul\":7053:7214   */\n      pop\n      pop\n      jump\t// out\n        /* \"#utility.yul\":7220:7472   */\n    tag_56:\n        /* \"#utility.yul\":7328:7332   */\n      0x00\n        /* \"#utility.yul\":7366:7368   */\n      0x20\n        /* \"#utility.yul\":7355:7364   */\n      dup3\n        /* \"#utility.yul\":7351:7369   */\n      add\n        /* \"#utility.yul\":7343:7369   */\n      swap1\n      pop\n        /* \"#utility.yul\":7379:7465   */\n      tag_214\n        /* \"#utility.yul\":7462:7463   */\n      0x00\n        /* \"#utility.yul\":7451:7460   */\n      dup4\n        /* \"#utility.yul\":7447:7464   */\n      add\n        /* \"#utility.yul\":7438:7444   */\n      dup5\n        /* \"#utility.yul\":7379:7465   */\n      tag_125\n      jump\t// in\n    tag_214:\n        /* \"#utility.yul\":7220:7472   */\n      swap3\n      swap2\n      pop\n      pop\n      jump\t// out\n        /* \"#utility.yul\":7478:7658   */\n    tag_126:\n        /* \"#utility.yul\":7526:7603   */\n      0x4e487b7100000000000000000000000000000000000000000000000000000000\n        /* \"#utility.yul\":7523:7524   */\n      0x00\n        /* \"#utility.yul\":7516:7604   */\n      mstore\n        /* \"#utility.yul\":7623:7627   */\n      0x11\n        /* \"#utility.yul\":7620:7621   */\n      0x04\n        /* \"#utility.yul\":7613:7628   */\n      mstore\n        /* \"#utility.yul\":7647:7651   */\n      0x24\n        /* \"#utility.yul\":7644:7645   */\n      0x00\n        /* \"#utility.yul\":7637:7652   */\n      revert\n        /* \"#utility.yul\":7664:7855   */\n    tag_66:\n        /* \"#utility.yul\":7704:7707   */\n      0x00\n        /* \"#utility.yul\":7723:7743   */\n      tag_217\n        /* \"#utility.yul\":7741:7742   */\n      dup3\n        /* \"#utility.yul\":7723:7743   */\n      tag_99\n      jump\t// in\n    tag_217:\n        /* \"#utility.yul\":7718:7743   */\n      swap2\n      pop\n        /* \"#utility.yul\":7757:7777   */\n      tag_218\n        /* \"#utility.yul\":7775:7776   */\n      dup4\n        /* \"#utility.yul\":7757:7777   */\n      tag_99\n      jump\t// in\n    tag_218:\n        /* \"#utility.yul\":7752:7777   */\n      swap3\n      pop\n        /* \"#utility.yul\":7800:7801   */\n      dup3\n        /* \"#utility.yul\":7797:7798   */\n      dup3\n        /* \"#utility.yul\":7793:7802   */\n      add\n        /* \"#utility.yul\":7786:7802   */\n      swap1\n      pop\n        /* \"#utility.yul\":7821:7824   */\n      dup1\n        /* \"#utility.yul\":7818:7819   */\n      dup3\n        /* \"#utility.yul\":7815:7825   */\n      gt\n        /* \"#utility.yul\":7812:7848   */\n      iszero\n      tag_219\n      jumpi\n        /* \"#utility.yul\":7828:7846   */\n      tag_220\n      tag_126\n      jump\t// in\n    tag_220:\n        /* \"#utility.yul\":7812:7848   */\n    tag_219:\n        /* \"#utility.yul\":7664:7855   */\n      swap3\n      swap2\n      pop\n      pop\n      jump\t// out\n        /* \"#utility.yul\":7861:8094   */\n    tag_68:\n        /* \"#utility.yul\":7900:7903   */\n      0x00\n        /* \"#utility.yul\":7923:7947   */\n      tag_222\n        /* \"#utility.yul\":7941:7946   */\n      dup3\n        /* \"#utility.yul\":7923:7947   */\n      tag_99\n      jump\t// in\n    tag_222:\n        /* \"#utility.yul\":7914:7947   */\n      swap2\n      pop\n        /* \"#utility.yul\":7969:8035   */\n      0xffffffffffffffffffffffffffffffffffffffffffffffffffffffffffffffff\n        /* \"#utility.yul\":7962:7967   */\n      dup3\n        /* \"#utility.yul\":7959:8036   */\n      sub\n        /* \"#utility.yul\":7956:8059   */\n      tag_223\n      jumpi\n        /* \"#utility.yul\":8039:8057   */\n      tag_224\n      tag_126\n      jump\t// in\n    tag_224:\n        /* \"#utility.yul\":7956:8059   */\n    tag_223:\n        /* \"#utility.yul\":8086:8087   */\n      0x01\n        /* \"#utility.yul\":8079:8084   */\n      dup3\n        /* \"#utility.yul\":8075:8088   */\n      add\n        /* \"#utility.yul\":8068:8088   */\n      swap1\n      pop\n        /* \"#utility.yul\":7861:8094   */\n      swap2\n      swap1\n      pop\n      jump\t// out\n        /* \"#utility.yul\":8100:8248   */\n    tag_127:\n        /* \"#utility.yul\":8202:8213   */\n      0x00\n        /* \"#utility.yul\":8239:8242   */\n      dup2\n        /* \"#utility.yul\":8224:8242   */\n      swap1\n      pop\n        /* \"#utility.yul\":8100:8248   */\n      swap3\n      swap2\n      pop\n      pop\n      jump\t// out\n        /* \"#utility.yul\":8254:8644   */\n    tag_128:\n        /* \"#utility.yul\":8360:8363   */\n      0x00\n        /* \"#utility.yul\":8388:8427   */\n      tag_227\n        /* \"#utility.yul\":8421:8426   */\n      dup3\n        /* \"#utility.yul\":8388:8427   */\n      tag_118\n      jump\t// in\n    tag_227:\n        /* \"#utility.yul\":8443:8532   */\n      tag_228\n        /* \"#utility.yul\":8525:8531   */\n      dup2\n        /* \"#utility.yul\":8520:8523   */\n      dup6\n        /* \"#utility.yul\":8443:8532   */\n      tag_127\n      jump\t// in\n    tag_228:\n        /* \"#utility.yul\":8436:8532   */\n      swap4\n      pop\n        /* \"#utility.yul\":8541:8606   */\n      tag_229\n        /* \"#utility.yul\":8599:8605   */\n      dup2\n        /* \"#utility.yul\":8594:8597   */\n      dup6\n        /* \"#utility.yul\":8587:8591   */\n      0x20\n        /* \"#utility.yul\":8580:8585   */\n      dup7\n        /* \"#utility.yul\":8576:8592   */\n      add\n        /* \"#utility.yul\":8541:8606   */\n      tag_120\n      jump\t// in\n    tag_229:\n        /* \"#utility.yul\":8631:8637   */\n      dup1\n        /* \"#utility.yul\":8626:8629   */\n      dup5\n        /* \"#utility.yul\":8622:8638   */\n      add\n        /* \"#utility.yul\":8615:8638   */\n      swap2\n      pop\n        /* \"#utility.yul\":8364:8644   */\n      pop\n        /* \"#utility.yul\":8254:8644   */\n      swap3\n      swap2\n      pop\n      pop\n      jump\t// out\n        /* \"#utility.yul\":8650:8925   */\n    tag_79:\n        /* \"#utility.yul\":8782:8785   */\n      0x00\n        /* \"#utility.yul\":8804:8899   */\n      tag_231\n        /* \"#utility.yul\":8895:8898   */\n      dup3\n        /* \"#utility.yul\":8886:8892   */\n      dup5\n        /* \"#utility.yul\":8804:8899   */\n      tag_128\n      jump\t// in\n    tag_231:\n        /* \"#utility.yul\":8797:8899   */\n      swap2\n      pop\n        /* \"#utility.yul\":8916:8919   */\n      dup2\n        /* \"#utility.yul\":8909:8919   */\n      swap1\n      pop\n        /* \"#utility.yul\":8650:8925   */\n      swap3\n      swap2\n      pop\n      pop\n      jump\t// out\n        /* \"#utility.yul\":8931:9111   */\n    tag_129:\n        /* \"#utility.yul\":8979:9056   */\n      0x4e487b7100000000000000000000000000000000000000000000000000000000\n        /* \"#utility.yul\":8976:8977   */\n      0x00\n        /* \"#utility.yul\":8969:9057   */\n      mstore\n        /* \"#utility.yul\":9076:9080   */\n      0x22\n        /* \"#utility.yul\":9073:9074   */\n      0x04\n        /* \"#utility.yul\":9066:9081   */\n      mstore\n        /* \"#utility.yul\":9100:9104   */\n      0x24\n        /* \"#utility.yul\":9097:9098   */\n      0x00\n        /* \"#utility.yul\":9090:9105   */\n      revert\n        /* \"#utility.yul\":9117:9437   */\n    tag_86:\n        /* \"#utility.yul\":9161:9167   */\n      0x00\n        /* \"#utility.yul\":9198:9199   */\n      0x02\n        /* \"#utility.yul\":9192:9196   */\n      dup3\n        /* \"#utility.yul\":9188:9200   */\n      div\n        /* \"#utility.yul\":9178:9200   */\n      swap1\n      pop\n        /* \"#utility.yul\":9245:9246   */\n      0x01\n        /* \"#utility.yul\":9239:9243   */\n      dup3\n        /* \"#utility.yul\":9235:9247   */\n      and\n        /* \"#utility.yul\":9266:9284   */\n      dup1\n        /* \"#utility.yul\":9256:9337   */\n      tag_234\n      jumpi\n        /* \"#utility.yul\":9322:9326   */\n      0x7f\n        /* \"#utility.yul\":9314:9320   */\n      dup3\n        /* \"#utility.yul\":9310:9327   */\n      and\n        /* \"#utility.yul\":9300:9327   */\n      swap2\n      pop\n        /* \"#utility.yul\":9256:9337   */\n    tag_234:\n        /* \"#utility.yul\":9384:9386   */\n      0x20\n        /* \"#utility.yul\":9376:9382   */\n      dup3\n        /* \"#utility.yul\":9373:9387   */\n      lt\n        /* \"#utility.yul\":9353:9371   */\n      dup2\n        /* \"#utility.yul\":9350:9388   */\n      sub\n        /* \"#utility.yul\":9347:9431   */\n      tag_235\n      jumpi\n        /* \"#utility.yul\":9403:9421   */\n      tag_236\n      tag_129\n      jump\t// in\n    tag_236:\n        /* \"#utility.yul\":9347:9431   */\n    tag_235:\n        /* \"#utility.yul\":9168:9437   */\n      pop\n        /* \"#utility.yul\":9117:9437   */\n      swap2\n      swap1\n      pop\n      jump\t// out\n\n    auxdata: 0xa2646970667358221220db7620ca7b39c97f3b706396c977918b02d4167d5261ef97f567c6fdb4eb33f564736f6c634300081a0033\n}\n",
				"bytecode": {
					"linkReferences": {},
					"object": "608060405260015f806101000a81548160ff021916908315150217905550602a6001557fffffffffffffffffffffffffffffffffffffffffffffffffffffffffffffffd660025573ab8483f64d9c6d1ecf9b849ae677dd3315835cb260035f6101000a81548173ffffffffffffffffffffffffffffffffffffffff021916908373ffffffffffffffffffffffffffffffffffffffff1602179055506040518060400160405280600981526020017f666f7274792d74776f0000000000000000000000000000000000000000000000815250600490816100de919061034e565b507f307831323334353637383930616263646566313233343536373839300000000060055534801561010e575f80fd5b5061041d565b5f81519050919050565b7f4e487b71000000000000000000000000000000000000000000000000000000005f52604160045260245ffd5b7f4e487b71000000000000000000000000000000000000000000000000000000005f52602260045260245ffd5b5f600282049050600182168061018f57607f821691505b6020821081036101a2576101a161014b565b5b50919050565b5f819050815f5260205f209050919050565b5f6020601f8301049050919050565b5f82821b905092915050565b5f600883026102047fffffffffffffffffffffffffffffffffffffffffffffffffffffffffffffffff826101c9565b61020e86836101c9565b95508019841693508086168417925050509392505050565b5f819050919050565b5f819050919050565b5f61025261024d61024884610226565b61022f565b610226565b9050919050565b5f819050919050565b61026b83610238565b61027f61027782610259565b8484546101d5565b825550505050565b5f90565b610293610287565b61029e818484610262565b505050565b5b818110156102c1576102b65f8261028b565b6001810190506102a4565b5050565b601f821115610306576102d7816101a8565b6102e0846101ba565b810160208510156102ef578190505b6103036102fb856101ba565b8301826102a3565b50505b505050565b5f82821c905092915050565b5f6103265f198460080261030b565b1980831691505092915050565b5f61033e8383610317565b9150826002028217905092915050565b61035782610114565b67ffffffffffffffff8111156103705761036f61011e565b5b61037a8254610178565b6103858282856102c5565b5f60209050601f8311600181146103b6575f84156103a4578287015190505b6103ae8582610333565b865550610415565b601f1984166103c4866101a8565b5f5b828110156103eb578489015182556001820191506020850194506020810190506103c6565b868310156104085784890151610404601f891682610317565b8355505b6001600288020188555050505b505050505050565b6109c08061042a5f395ff3fe608060405234801561000f575f80fd5b50600436106100b2575f3560e01c80639e7a13ad1161006f5780639e7a13ad14610178578063a621d15e146101a9578063b6339418146101c7578063bca353be146101e3578063c19d93fb146101ed578063cb6a33f81461020b576100b2565b80630cd2636e146100b657806322f3e2d4146100d457806329cd1d96146100f25780636f760f41146101225780638bab8dd51461013e5780638fda356d1461016e575b5f80fd5b6100be61023b565b6040516100cb919061048d565b60405180910390f35b6100dc610278565b6040516100e991906104c0565b60405180910390f35b61010c60048036038101906101079190610514565b6102b3565b604051610119919061048d565b60405180910390f35b61013c6004803603810190610137919061067b565b6102d3565b005b610158600480360381019061015391906106d5565b6102fa565b604051610165919061048d565b60405180910390f35b610176610327565b005b610192600480360381019061018d9190610514565b610352565b6040516101a092919061077c565b60405180910390f35b6101b1610407565b6040516101be919061048d565b60405180910390f35b6101e160048036038101906101dc9190610514565b610410565b005b6101eb61041a565b005b6101f5610446565b604051610202919061081d565b60405180910390f35b61022560048036038101906102209190610514565b610458565b60405161023291906104c0565b60405180910390f35b5f805f90505f600190505b600154811161027057808261025b9190610863565b9150808061026890610896565b915050610246565b508091505090565b5f80600181111561028c5761028b6107aa565b5b60095f9054906101000a900460ff1660018111156102ad576102ac6107aa565b5b14905090565b600681815481106102c2575f80fd5b905f5260205f20015f915090505481565b806008836040516102e49190610917565b9081526020016040518091039020819055505050565b6008818051602081018201805184825260208301602085012081835280955050505050505f915090505481565b5f60095f6101000a81548160ff0219169083600181111561034b5761034a6107aa565b5b0217905550565b60078181548110610361575f80fd5b905f5260205f2090600202015f91509050805f0180546103809061095a565b80601f01602080910402602001604051908101604052809291908181526020018280546103ac9061095a565b80156103f75780601f106103ce576101008083540402835291602001916103f7565b820191905f5260205f20905b8154815290600101906020018083116103da57829003601f168201915b5050505050908060010154905082565b5f600154905090565b8060018190555050565b600160095f6101000a81548160ff0219169083600181111561043f5761043e6107aa565b5b0217905550565b60095f9054906101000a900460ff1681565b5f81600154111561046c5760019050610470565b5f90505b919050565b5f819050919050565b61048781610475565b82525050565b5f6020820190506104a05f83018461047e565b92915050565b5f8115159050919050565b6104ba816104a6565b82525050565b5f6020820190506104d35f8301846104b1565b92915050565b5f604051905090565b5f80fd5b5f80fd5b6104f381610475565b81146104fd575f80fd5b50565b5f8135905061050e816104ea565b92915050565b5f60208284031215610529576105286104e2565b5b5f61053684828501610500565b91505092915050565b5f80fd5b5f80fd5b5f601f19601f8301169050919050565b7f4e487b71000000000000000000000000000000000000000000000000000000005f52604160045260245ffd5b61058d82610547565b810181811067ffffffffffffffff821117156105ac576105ab610557565b5b80604052505050565b5f6105be6104d9565b90506105ca8282610584565b919050565b5f67ffffffffffffffff8211156105e9576105e8610557565b5b6105f282610547565b9050602081019050919050565b828183375f83830152505050565b5f61061f61061a846105cf565b6105b5565b90508281526020810184848401111561063b5761063a610543565b5b6106468482856105ff565b509392505050565b5f82601f8301126106625761066161053f565b5b813561067284826020860161060d565b91505092915050565b5f8060408385031215610691576106906104e2565b5b5f83013567ffffffffffffffff8111156106ae576106ad6104e6565b5b6106ba8582860161064e565b92505060206106cb85828601610500565b9150509250929050565b5f602082840312156106ea576106e96104e2565b5b5f82013567ffffffffffffffff811115610707576107066104e6565b5b6107138482850161064e565b91505092915050565b5f81519050919050565b5f82825260208201905092915050565b8281835e5f83830152505050565b5f61074e8261071c565b6107588185610726565b9350610768818560208601610736565b61077181610547565b840191505092915050565b5f6040820190508181035f8301526107948185610744565b90506107a3602083018461047e565b9392505050565b7f4e487b71000000000000000000000000000000000000000000000000000000005f52602160045260245ffd5b600281106107e8576107e76107aa565b5b50565b5f8190506107f8826107d7565b919050565b5f610807826107eb565b9050919050565b610817816107fd565b82525050565b5f6020820190506108305f83018461080e565b92915050565b7f4e487b71000000000000000000000000000000000000000000000000000000005f52601160045260245ffd5b5f61086d82610475565b915061087883610475565b92508282019050808211156108905761088f610836565b5b92915050565b5f6108a082610475565b91507fffffffffffffffffffffffffffffffffffffffffffffffffffffffffffffffff82036108d2576108d1610836565b5b600182019050919050565b5f81905092915050565b5f6108f18261071c565b6108fb81856108dd565b935061090b818560208601610736565b80840191505092915050565b5f61092282846108e7565b915081905092915050565b7f4e487b71000000000000000000000000000000000000000000000000000000005f52602260045260245ffd5b5f600282049050600182168061097157607f821691505b6020821081036109845761098361092d565b5b5091905056fea2646970667358221220db7620ca7b39c97f3b706396c977918b02d4167d5261ef97f567c6fdb4eb33f564736f6c634300081a0033",
					"opcodes": "PUSH1 0x80 PUSH1 0x40 MSTORE PUSH1 0x1 PUSH0 DUP1 PUSH2 0x100 EXP DUP2 SLOAD DUP2 PUSH1 0xFF MUL NOT AND SWAP1 DUP4 ISZERO ISZERO MUL OR SWAP1 SSTORE POP PUSH1 0x2A PUSH1 0x1 SSTORE PUSH32 0xFFFFFFFFFFFFFFFFFFFFFFFFFFFFFFFFFFFFFFFFFFFFFFFFFFFFFFFFFFFFFFD6 PUSH1 0x2 SSTORE PUSH20 0xAB8483F64D9C6D1ECF9B849AE677DD3315835CB2 PUSH1 0x3 PUSH0 PUSH2 0x100 EXP DUP2 SLOAD DUP2 PUSH20 0xFFFFFFFFFFFFFFFFFFFFFFFFFFFFFFFFFFFFFFFF MUL NOT AND SWAP1 DUP4 PUSH20 0xFFFFFFFFFFFFFFFFFFFFFFFFFFFFFFFFFFFFFFFF AND MUL OR SWAP1 SSTORE POP PUSH1 0x40 MLOAD DUP1 PUSH1 0x40 ADD PUSH1 0x40 MSTORE DUP1 PUSH1 0x9 DUP2 MSTORE PUSH1 0x20 ADD PUSH32 0x666F7274792D74776F0000000000000000000000000000000000000000000000 DUP2 MSTORE POP PUSH1 0x4 SWAP1 DUP2 PUSH2 0xDE SWAP2 SWAP1 PUSH2 0x34E JUMP JUMPDEST POP PUSH32 0x3078313233343536373839306162636465663132333435363738393000000000 PUSH1 0x5 SSTORE CALLVALUE DUP1 ISZERO PUSH2 0x10E JUMPI PUSH0 DUP1 REVERT JUMPDEST POP PUSH2 0x41D JUMP JUMPDEST PUSH0 DUP2 MLOAD SWAP1 POP SWAP2 SWAP1 POP JUMP JUMPDEST PUSH32 0x4E487B7100000000000000000000000000000000000000000000000000000000 PUSH0 MSTORE PUSH1 0x41 PUSH1 0x4 MSTORE PUSH1 0x24 PUSH0 REVERT JUMPDEST PUSH32 0x4E487B7100000000000000000000000000000000000000000000000000000000 PUSH0 MSTORE PUSH1 0x22 PUSH1 0x4 MSTORE PUSH1 0x24 PUSH0 REVERT JUMPDEST PUSH0 PUSH1 0x2 DUP3 DIV SWAP1 POP PUSH1 0x1 DUP3 AND DUP1 PUSH2 0x18F JUMPI PUSH1 0x7F DUP3 AND SWAP2 POP JUMPDEST PUSH1 0x20 DUP3 LT DUP2 SUB PUSH2 0x1A2 JUMPI PUSH2 0x1A1 PUSH2 0x14B JUMP JUMPDEST JUMPDEST POP SWAP2 SWAP1 POP JUMP JUMPDEST PUSH0 DUP2 SWAP1 POP DUP2 PUSH0 MSTORE PUSH1 0x20 PUSH0 KECCAK256 SWAP1 POP SWAP2 SWAP1 POP JUMP JUMPDEST PUSH0 PUSH1 0x20 PUSH1 0x1F DUP4 ADD DIV SWAP1 POP SWAP2 SWAP1 POP JUMP JUMPDEST PUSH0 DUP3 DUP3 SHL SWAP1 POP SWAP3 SWAP2 POP POP JUMP JUMPDEST PUSH0 PUSH1 0x8 DUP4 MUL PUSH2 0x204 PUSH32 0xFFFFFFFFFFFFFFFFFFFFFFFFFFFFFFFFFFFFFFFFFFFFFFFFFFFFFFFFFFFFFFFF DUP3 PUSH2 0x1C9 JUMP JUMPDEST PUSH2 0x20E DUP7 DUP4 PUSH2 0x1C9 JUMP JUMPDEST SWAP6 POP DUP1 NOT DUP5 AND SWAP4 POP DUP1 DUP7 AND DUP5 OR SWAP3 POP POP POP SWAP4 SWAP3 POP POP POP JUMP JUMPDEST PUSH0 DUP2 SWAP1 POP SWAP2 SWAP1 POP JUMP JUMPDEST PUSH0 DUP2 SWAP1 POP SWAP2 SWAP1 POP JUMP JUMPDEST PUSH0 PUSH2 0x252 PUSH2 0x24D PUSH2 0x248 DUP5 PUSH2 0x226 JUMP JUMPDEST PUSH2 0x22F JUMP JUMPDEST PUSH2 0x226 JUMP JUMPDEST SWAP1 POP SWAP2 SWAP1 POP JUMP JUMPDEST PUSH0 DUP2 SWAP1 POP SWAP2 SWAP1 POP JUMP JUMPDEST PUSH2 0x26B DUP4 PUSH2 0x238 JUMP JUMPDEST PUSH2 0x27F PUSH2 0x277 DUP3 PUSH2 0x259 JUMP JUMPDEST DUP5 DUP5 SLOAD PUSH2 0x1D5 JUMP JUMPDEST DUP3 SSTORE POP POP POP POP JUMP JUMPDEST PUSH0 SWAP1 JUMP JUMPDEST PUSH2 0x293 PUSH2 0x287 JUMP JUMPDEST PUSH2 0x29E DUP2 DUP5 DUP5 PUSH2 0x262 JUMP JUMPDEST POP POP POP JUMP JUMPDEST JUMPDEST DUP2 DUP2 LT ISZERO PUSH2 0x2C1 JUMPI PUSH2 0x2B6 PUSH0 DUP3 PUSH2 0x28B JUMP JUMPDEST PUSH1 0x1 DUP2 ADD SWAP1 POP PUSH2 0x2A4 JUMP JUMPDEST POP POP JUMP JUMPDEST PUSH1 0x1F DUP3 GT ISZERO PUSH2 0x306 JUMPI PUSH2 0x2D7 DUP2 PUSH2 0x1A8 JUMP JUMPDEST PUSH2 0x2E0 DUP5 PUSH2 0x1BA JUMP JUMPDEST DUP2 ADD PUSH1 0x20 DUP6 LT ISZERO PUSH2 0x2EF JUMPI DUP2 SWAP1 POP JUMPDEST PUSH2 0x303 PUSH2 0x2FB DUP6 PUSH2 0x1BA JUMP JUMPDEST DUP4 ADD DUP3 PUSH2 0x2A3 JUMP JUMPDEST POP POP JUMPDEST POP POP POP JUMP JUMPDEST PUSH0 DUP3 DUP3 SHR SWAP1 POP SWAP3 SWAP2 POP POP JUMP JUMPDEST PUSH0 PUSH2 0x326 PUSH0 NOT DUP5 PUSH1 0x8 MUL PUSH2 0x30B JUMP JUMPDEST NOT DUP1 DUP4 AND SWAP2 POP POP SWAP3 SWAP2 POP POP JUMP JUMPDEST PUSH0 PUSH2 0x33E DUP4 DUP4 PUSH2 0x317 JUMP JUMPDEST SWAP2 POP DUP3 PUSH1 0x2 MUL DUP3 OR SWAP1 POP SWAP3 SWAP2 POP POP JUMP JUMPDEST PUSH2 0x357 DUP3 PUSH2 0x114 JUMP JUMPDEST PUSH8 0xFFFFFFFFFFFFFFFF DUP2 GT ISZERO PUSH2 0x370 JUMPI PUSH2 0x36F PUSH2 0x11E JUMP JUMPDEST JUMPDEST PUSH2 0x37A DUP3 SLOAD PUSH2 0x178 JUMP JUMPDEST PUSH2 0x385 DUP3 DUP3 DUP6 PUSH2 0x2C5 JUMP JUMPDEST PUSH0 PUSH1 0x20 SWAP1 POP PUSH1 0x1F DUP4 GT PUSH1 0x1 DUP2 EQ PUSH2 0x3B6 JUMPI PUSH0 DUP5 ISZERO PUSH2 0x3A4 JUMPI DUP3 DUP8 ADD MLOAD SWAP1 POP JUMPDEST PUSH2 0x3AE DUP6 DUP3 PUSH2 0x333 JUMP JUMPDEST DUP7 SSTORE POP PUSH2 0x415 JUMP JUMPDEST PUSH1 0x1F NOT DUP5 AND PUSH2 0x3C4 DUP7 PUSH2 0x1A8 JUMP JUMPDEST PUSH0 JUMPDEST DUP3 DUP2 LT ISZERO PUSH2 0x3EB JUMPI DUP5 DUP10 ADD MLOAD DUP3 SSTORE PUSH1 0x1 DUP3 ADD SWAP2 POP PUSH1 0x20 DUP6 ADD SWAP5 POP PUSH1 0x20 DUP2 ADD SWAP1 POP PUSH2 0x3C6 JUMP JUMPDEST DUP7 DUP4 LT ISZERO PUSH2 0x408 JUMPI DUP5 DUP10 ADD MLOAD PUSH2 0x404 PUSH1 0x1F DUP10 AND DUP3 PUSH2 0x317 JUMP JUMPDEST DUP4 SSTORE POP JUMPDEST PUSH1 0x1 PUSH1 0x2 DUP9 MUL ADD DUP9 SSTORE POP POP POP JUMPDEST POP POP POP POP POP POP JUMP JUMPDEST PUSH2 0x9C0 DUP1 PUSH2 0x42A PUSH0 CODECOPY PUSH0 RETURN INVALID PUSH1 0x80 PUSH1 0x40 MSTORE CALLVALUE DUP1 ISZERO PUSH2 0xF JUMPI PUSH0 DUP1 REVERT JUMPDEST POP PUSH1 0x4 CALLDATASIZE LT PUSH2 0xB2 JUMPI PUSH0 CALLDATALOAD PUSH1 0xE0 SHR DUP1 PUSH4 0x9E7A13AD GT PUSH2 0x6F JUMPI DUP1 PUSH4 0x9E7A13AD EQ PUSH2 0x178 JUMPI DUP1 PUSH4 0xA621D15E EQ PUSH2 0x1A9 JUMPI DUP1 PUSH4 0xB6339418 EQ PUSH2 0x1C7 JUMPI DUP1 PUSH4 0xBCA353BE EQ PUSH2 0x1E3 JUMPI DUP1 PUSH4 0xC19D93FB EQ PUSH2 0x1ED JUMPI DUP1 PUSH4 0xCB6A33F8 EQ PUSH2 0x20B JUMPI PUSH2 0xB2 JUMP JUMPDEST DUP1 PUSH4 0xCD2636E EQ PUSH2 0xB6 JUMPI DUP1 PUSH4 0x22F3E2D4 EQ PUSH2 0xD4 JUMPI DUP1 PUSH4 0x29CD1D96 EQ PUSH2 0xF2 JUMPI DUP1 PUSH4 0x6F760F41 EQ PUSH2 0x122 JUMPI DUP1 PUSH4 0x8BAB8DD5 EQ PUSH2 0x13E JUMPI DUP1 PUSH4 0x8FDA356D EQ PUSH2 0x16E JUMPI JUMPDEST PUSH0 DUP1 REVERT JUMPDEST PUSH2 0xBE PUSH2 0x23B JUMP JUMPDEST PUSH1 0x40 MLOAD PUSH2 0xCB SWAP2 SWAP1 PUSH2 0x48D JUMP JUMPDEST PUSH1 0x40 MLOAD DUP1 SWAP2 SUB SWAP1 RETURN JUMPDEST PUSH2 0xDC PUSH2 0x278 JUMP JUMPDEST PUSH1 0x40 MLOAD PUSH2 0xE9 SWAP2 SWAP1 PUSH2 0x4C0 JUMP JUMPDEST PUSH1 0x40 MLOAD DUP1 SWAP2 SUB SWAP1 RETURN JUMPDEST PUSH2 0x10C PUSH1 0x4 DUP1 CALLDATASIZE SUB DUP2 ADD SWAP1 PUSH2 0x107 SWAP2 SWAP1 PUSH2 0x514 JUMP JUMPDEST PUSH2 0x2B3 JUMP JUMPDEST PUSH1 0x40 MLOAD PUSH2 0x119 SWAP2 SWAP1 PUSH2 0x48D JUMP JUMPDEST PUSH1 0x40 MLOAD DUP1 SWAP2 SUB SWAP1 RETURN JUMPDEST PUSH2 0x13C PUSH1 0x4 DUP1 CALLDATASIZE SUB DUP2 ADD SWAP1 PUSH2 0x137 SWAP2 SWAP1 PUSH2 0x67B JUMP JUMPDEST PUSH2 0x2D3 JUMP JUMPDEST STOP JUMPDEST PUSH2 0x158 PUSH1 0x4 DUP1 CALLDATASIZE SUB DUP2 ADD SWAP1 PUSH2 0x153 SWAP2 SWAP1 PUSH2 0x6D5 JUMP JUMPDEST PUSH2 0x2FA JUMP JUMPDEST PUSH1 0x40 MLOAD PUSH2 0x165 SWAP2 SWAP1 PUSH2 0x48D JUMP JUMPDEST PUSH1 0x40 MLOAD DUP1 SWAP2 SUB SWAP1 RETURN JUMPDEST PUSH2 0x176 PUSH2 0x327 JUMP JUMPDEST STOP JUMPDEST PUSH2 0x192 PUSH1 0x4 DUP1 CALLDATASIZE SUB DUP2 ADD SWAP1 PUSH2 0x18D SWAP2 SWAP1 PUSH2 0x514 JUMP JUMPDEST PUSH2 0x352 JUMP JUMPDEST PUSH1 0x40 MLOAD PUSH2 0x1A0 SWAP3 SWAP2 SWAP1 PUSH2 0x77C JUMP JUMPDEST PUSH1 0x40 MLOAD DUP1 SWAP2 SUB SWAP1 RETURN JUMPDEST PUSH2 0x1B1 PUSH2 0x407 JUMP JUMPDEST PUSH1 0x40 MLOAD PUSH2 0x1BE SWAP2 SWAP1 PUSH2 0x48D JUMP JUMPDEST PUSH1 0x40 MLOAD DUP1 SWAP2 SUB SWAP1 RETURN JUMPDEST PUSH2 0x1E1 PUSH1 0x4 DUP1 CALLDATASIZE SUB DUP2 ADD SWAP1 PUSH2 0x1DC SWAP2 SWAP1 PUSH2 0x514 JUMP JUMPDEST PUSH2 0x410 JUMP JUMPDEST STOP JUMPDEST PUSH2 0x1EB PUSH2 0x41A JUMP JUMPDEST STOP JUMPDEST PUSH2 0x1F5 PUSH2 0x446 JUMP JUMPDEST PUSH1 0x40 MLOAD PUSH2 0x202 SWAP2 SWAP1 PUSH2 0x81D JUMP JUMPDEST PUSH1 0x40 MLOAD DUP1 SWAP2 SUB SWAP1 RETURN JUMPDEST PUSH2 0x225 PUSH1 0x4 DUP1 CALLDATASIZE SUB DUP2 ADD SWAP1 PUSH2 0x220 SWAP2 SWAP1 PUSH2 0x514 JUMP JUMPDEST PUSH2 0x458 JUMP JUMPDEST PUSH1 0x40 MLOAD PUSH2 0x232 SWAP2 SWAP1 PUSH2 0x4C0 JUMP JUMPDEST PUSH1 0x40 MLOAD DUP1 SWAP2 SUB SWAP1 RETURN JUMPDEST PUSH0 DUP1 PUSH0 SWAP1 POP PUSH0 PUSH1 0x1 SWAP1 POP JUMPDEST PUSH1 0x1 SLOAD DUP2 GT PUSH2 0x270 JUMPI DUP1 DUP3 PUSH2 0x25B SWAP2 SWAP1 PUSH2 0x863 JUMP JUMPDEST SWAP2 POP DUP1 DUP1 PUSH2 0x268 SWAP1 PUSH2 0x896 JUMP JUMPDEST SWAP2 POP POP PUSH2 0x246 JUMP JUMPDEST POP DUP1 SWAP2 POP POP SWAP1 JUMP JUMPDEST PUSH0 DUP1 PUSH1 0x1 DUP2 GT ISZERO PUSH2 0x28C JUMPI PUSH2 0x28B PUSH2 0x7AA JUMP JUMPDEST JUMPDEST PUSH1 0x9 PUSH0 SWAP1 SLOAD SWAP1 PUSH2 0x100 EXP SWAP1 DIV PUSH1 0xFF AND PUSH1 0x1 DUP2 GT ISZERO PUSH2 0x2AD JUMPI PUSH2 0x2AC PUSH2 0x7AA JUMP JUMPDEST JUMPDEST EQ SWAP1 POP SWAP1 JUMP JUMPDEST PUSH1 0x6 DUP2 DUP2 SLOAD DUP2 LT PUSH2 0x2C2 JUMPI PUSH0 DUP1 REVERT JUMPDEST SWAP1 PUSH0 MSTORE PUSH1 0x20 PUSH0 KECCAK256 ADD PUSH0 SWAP2 POP SWAP1 POP SLOAD DUP2 JUMP JUMPDEST DUP1 PUSH1 0x8 DUP4 PUSH1 0x40 MLOAD PUSH2 0x2E4 SWAP2 SWAP1 PUSH2 0x917 JUMP JUMPDEST SWAP1 DUP2 MSTORE PUSH1 0x20 ADD PUSH1 0x40 MLOAD DUP1 SWAP2 SUB SWAP1 KECCAK256 DUP2 SWAP1 SSTORE POP POP POP JUMP JUMPDEST PUSH1 0x8 DUP2 DUP1 MLOAD PUSH1 0x20 DUP2 ADD DUP3 ADD DUP1 MLOAD DUP5 DUP3 MSTORE PUSH1 0x20 DUP4 ADD PUSH1 0x20 DUP6 ADD KECCAK256 DUP2 DUP4 MSTORE DUP1 SWAP6 POP POP POP POP POP POP PUSH0 SWAP2 POP SWAP1 POP SLOAD DUP2 JUMP JUMPDEST PUSH0 PUSH1 0x9 PUSH0 PUSH2 0x100 EXP DUP2 SLOAD DUP2 PUSH1 0xFF MUL NOT AND SWAP1 DUP4 PUSH1 0x1 DUP2 GT ISZERO PUSH2 0x34B JUMPI PUSH2 0x34A PUSH2 0x7AA JUMP JUMPDEST JUMPDEST MUL OR SWAP1 SSTORE POP JUMP JUMPDEST PUSH1 0x7 DUP2 DUP2 SLOAD DUP2 LT PUSH2 0x361 JUMPI PUSH0 DUP1 REVERT JUMPDEST SWAP1 PUSH0 MSTORE PUSH1 0x20 PUSH0 KECCAK256 SWAP1 PUSH1 0x2 MUL ADD PUSH0 SWAP2 POP SWAP1 POP DUP1 PUSH0 ADD DUP1 SLOAD PUSH2 0x380 SWAP1 PUSH2 0x95A JUMP JUMPDEST DUP1 PUSH1 0x1F ADD PUSH1 0x20 DUP1 SWAP2 DIV MUL PUSH1 0x20 ADD PUSH1 0x40 MLOAD SWAP1 DUP2 ADD PUSH1 0x40 MSTORE DUP1 SWAP3 SWAP2 SWAP1 DUP2 DUP2 MSTORE PUSH1 0x20 ADD DUP3 DUP1 SLOAD PUSH2 0x3AC SWAP1 PUSH2 0x95A JUMP JUMPDEST DUP1 ISZERO PUSH2 0x3F7 JUMPI DUP1 PUSH1 0x1F LT PUSH2 0x3CE JUMPI PUSH2 0x100 DUP1 DUP4 SLOAD DIV MUL DUP4 MSTORE SWAP2 PUSH1 0x20 ADD SWAP2 PUSH2 0x3F7 JUMP JUMPDEST DUP3 ADD SWAP2 SWAP1 PUSH0 MSTORE PUSH1 0x20 PUSH0 KECCAK256 SWAP1 JUMPDEST DUP2 SLOAD DUP2 MSTORE SWAP1 PUSH1 0x1 ADD SWAP1 PUSH1 0x20 ADD DUP1 DUP4 GT PUSH2 0x3DA JUMPI DUP3 SWAP1 SUB PUSH1 0x1F AND DUP3 ADD SWAP2 JUMPDEST POP POP POP POP POP SWAP1 DUP1 PUSH1 0x1 ADD SLOAD SWAP1 POP DUP3 JUMP JUMPDEST PUSH0 PUSH1 0x1 SLOAD SWAP1 POP SWAP1 JUMP JUMPDEST DUP1 PUSH1 0x1 DUP2 SWAP1 SSTORE POP POP JUMP JUMPDEST PUSH1 0x1 PUSH1 0x9 PUSH0 PUSH2 0x100 EXP DUP2 SLOAD DUP2 PUSH1 0xFF MUL NOT AND SWAP1 DUP4 PUSH1 0x1 DUP2 GT ISZERO PUSH2 0x43F JUMPI PUSH2 0x43E PUSH2 0x7AA JUMP JUMPDEST JUMPDEST MUL OR SWAP1 SSTORE POP JUMP JUMPDEST PUSH1 0x9 PUSH0 SWAP1 SLOAD SWAP1 PUSH2 0x100 EXP SWAP1 DIV PUSH1 0xFF AND DUP2 JUMP JUMPDEST PUSH0 DUP2 PUSH1 0x1 SLOAD GT ISZERO PUSH2 0x46C JUMPI PUSH1 0x1 SWAP1 POP PUSH2 0x470 JUMP JUMPDEST PUSH0 SWAP1 POP JUMPDEST SWAP2 SWAP1 POP JUMP JUMPDEST PUSH0 DUP2 SWAP1 POP SWAP2 SWAP1 POP JUMP JUMPDEST PUSH2 0x487 DUP2 PUSH2 0x475 JUMP JUMPDEST DUP3 MSTORE POP POP JUMP JUMPDEST PUSH0 PUSH1 0x20 DUP3 ADD SWAP1 POP PUSH2 0x4A0 PUSH0 DUP4 ADD DUP5 PUSH2 0x47E JUMP JUMPDEST SWAP3 SWAP2 POP POP JUMP JUMPDEST PUSH0 DUP2 ISZERO ISZERO SWAP1 POP SWAP2 SWAP1 POP JUMP JUMPDEST PUSH2 0x4BA DUP2 PUSH2 0x4A6 JUMP JUMPDEST DUP3 MSTORE POP POP JUMP JUMPDEST PUSH0 PUSH1 0x20 DUP3 ADD SWAP1 POP PUSH2 0x4D3 PUSH0 DUP4 ADD DUP5 PUSH2 0x4B1 JUMP JUMPDEST SWAP3 SWAP2 POP POP JUMP JUMPDEST PUSH0 PUSH1 0x40 MLOAD SWAP1 POP SWAP1 JUMP JUMPDEST PUSH0 DUP1 REVERT JUMPDEST PUSH0 DUP1 REVERT JUMPDEST PUSH2 0x4F3 DUP2 PUSH2 0x475 JUMP JUMPDEST DUP2 EQ PUSH2 0x4FD JUMPI PUSH0 DUP1 REVERT JUMPDEST POP JUMP JUMPDEST PUSH0 DUP2 CALLDATALOAD SWAP1 POP PUSH2 0x50E DUP2 PUSH2 0x4EA JUMP JUMPDEST SWAP3 SWAP2 POP POP JUMP JUMPDEST PUSH0 PUSH1 0x20 DUP3 DUP5 SUB SLT ISZERO PUSH2 0x529 JUMPI PUSH2 0x528 PUSH2 0x4E2 JUMP JUMPDEST JUMPDEST PUSH0 PUSH2 0x536 DUP5 DUP3 DUP6 ADD PUSH2 0x500 JUMP JUMPDEST SWAP2 POP POP SWAP3 SWAP2 POP POP JUMP JUMPDEST PUSH0 DUP1 REVERT JUMPDEST PUSH0 DUP1 REVERT JUMPDEST PUSH0 PUSH1 0x1F NOT PUSH1 0x1F DUP4 ADD AND SWAP1 POP SWAP2 SWAP1 POP JUMP JUMPDEST PUSH32 0x4E487B7100000000000000000000000000000000000000000000000000000000 PUSH0 MSTORE PUSH1 0x41 PUSH1 0x4 MSTORE PUSH1 0x24 PUSH0 REVERT JUMPDEST PUSH2 0x58D DUP3 PUSH2 0x547 JUMP JUMPDEST DUP2 ADD DUP2 DUP2 LT PUSH8 0xFFFFFFFFFFFFFFFF DUP3 GT OR ISZERO PUSH2 0x5AC JUMPI PUSH2 0x5AB PUSH2 0x557 JUMP JUMPDEST JUMPDEST DUP1 PUSH1 0x40 MSTORE POP POP POP JUMP JUMPDEST PUSH0 PUSH2 0x5BE PUSH2 0x4D9 JUMP JUMPDEST SWAP1 POP PUSH2 0x5CA DUP3 DUP3 PUSH2 0x584 JUMP JUMPDEST SWAP2 SWAP1 POP JUMP JUMPDEST PUSH0 PUSH8 0xFFFFFFFFFFFFFFFF DUP3 GT ISZERO PUSH2 0x5E9 JUMPI PUSH2 0x5E8 PUSH2 0x557 JUMP JUMPDEST JUMPDEST PUSH2 0x5F2 DUP3 PUSH2 0x547 JUMP JUMPDEST SWAP1 POP PUSH1 0x20 DUP2 ADD SWAP1 POP SWAP2 SWAP1 POP JUMP JUMPDEST DUP3 DUP2 DUP4 CALLDATACOPY PUSH0 DUP4 DUP4 ADD MSTORE POP POP POP JUMP JUMPDEST PUSH0 PUSH2 0x61F PUSH2 0x61A DUP5 PUSH2 0x5CF JUMP JUMPDEST PUSH2 0x5B5 JUMP JUMPDEST SWAP1 POP DUP3 DUP2 MSTORE PUSH1 0x20 DUP2 ADD DUP5 DUP5 DUP5 ADD GT ISZERO PUSH2 0x63B JUMPI PUSH2 0x63A PUSH2 0x543 JUMP JUMPDEST JUMPDEST PUSH2 0x646 DUP5 DUP3 DUP6 PUSH2 0x5FF JUMP JUMPDEST POP SWAP4 SWAP3 POP POP POP JUMP JUMPDEST PUSH0 DUP3 PUSH1 0x1F DUP4 ADD SLT PUSH2 0x662 JUMPI PUSH2 0x661 PUSH2 0x53F JUMP JUMPDEST JUMPDEST DUP2 CALLDATALOAD PUSH2 0x672 DUP5 DUP3 PUSH1 0x20 DUP7 ADD PUSH2 0x60D JUMP JUMPDEST SWAP2 POP POP SWAP3 SWAP2 POP POP JUMP JUMPDEST PUSH0 DUP1 PUSH1 0x40 DUP4 DUP6 SUB SLT ISZERO PUSH2 0x691 JUMPI PUSH2 0x690 PUSH2 0x4E2 JUMP JUMPDEST JUMPDEST PUSH0 DUP4 ADD CALLDATALOAD PUSH8 0xFFFFFFFFFFFFFFFF DUP2 GT ISZERO PUSH2 0x6AE JUMPI PUSH2 0x6AD PUSH2 0x4E6 JUMP JUMPDEST JUMPDEST PUSH2 0x6BA DUP6 DUP3 DUP7 ADD PUSH2 0x64E JUMP JUMPDEST SWAP3 POP POP PUSH1 0x20 PUSH2 0x6CB DUP6 DUP3 DUP7 ADD PUSH2 0x500 JUMP JUMPDEST SWAP2 POP POP SWAP3 POP SWAP3 SWAP1 POP JUMP JUMPDEST PUSH0 PUSH1 0x20 DUP3 DUP5 SUB SLT ISZERO PUSH2 0x6EA JUMPI PUSH2 0x6E9 PUSH2 0x4E2 JUMP JUMPDEST JUMPDEST PUSH0 DUP3 ADD CALLDATALOAD PUSH8 0xFFFFFFFFFFFFFFFF DUP2 GT ISZERO PUSH2 0x707 JUMPI PUSH2 0x706 PUSH2 0x4E6 JUMP JUMPDEST JUMPDEST PUSH2 0x713 DUP5 DUP3 DUP6 ADD PUSH2 0x64E JUMP JUMPDEST SWAP2 POP POP SWAP3 SWAP2 POP POP JUMP JUMPDEST PUSH0 DUP2 MLOAD SWAP1 POP SWAP2 SWAP1 POP JUMP JUMPDEST PUSH0 DUP3 DUP3 MSTORE PUSH1 0x20 DUP3 ADD SWAP1 POP SWAP3 SWAP2 POP POP JUMP JUMPDEST DUP3 DUP2 DUP4 MCOPY PUSH0 DUP4 DUP4 ADD MSTORE POP POP POP JUMP JUMPDEST PUSH0 PUSH2 0x74E DUP3 PUSH2 0x71C JUMP JUMPDEST PUSH2 0x758 DUP2 DUP6 PUSH2 0x726 JUMP JUMPDEST SWAP4 POP PUSH2 0x768 DUP2 DUP6 PUSH1 0x20 DUP7 ADD PUSH2 0x736 JUMP JUMPDEST PUSH2 0x771 DUP2 PUSH2 0x547 JUMP JUMPDEST DUP5 ADD SWAP2 POP POP SWAP3 SWAP2 POP POP JUMP JUMPDEST PUSH0 PUSH1 0x40 DUP3 ADD SWAP1 POP DUP2 DUP2 SUB PUSH0 DUP4 ADD MSTORE PUSH2 0x794 DUP2 DUP6 PUSH2 0x744 JUMP JUMPDEST SWAP1 POP PUSH2 0x7A3 PUSH1 0x20 DUP4 ADD DUP5 PUSH2 0x47E JUMP JUMPDEST SWAP4 SWAP3 POP POP POP JUMP JUMPDEST PUSH32 0x4E487B7100000000000000000000000000000000000000000000000000000000 PUSH0 MSTORE PUSH1 0x21 PUSH1 0x4 MSTORE PUSH1 0x24 PUSH0 REVERT JUMPDEST PUSH1 0x2 DUP2 LT PUSH2 0x7E8 JUMPI PUSH2 0x7E7 PUSH2 0x7AA JUMP JUMPDEST JUMPDEST POP JUMP JUMPDEST PUSH0 DUP2 SWAP1 POP PUSH2 0x7F8 DUP3 PUSH2 0x7D7 JUMP JUMPDEST SWAP2 SWAP1 POP JUMP JUMPDEST PUSH0 PUSH2 0x807 DUP3 PUSH2 0x7EB JUMP JUMPDEST SWAP1 POP SWAP2 SWAP1 POP JUMP JUMPDEST PUSH2 0x817 DUP2 PUSH2 0x7FD JUMP JUMPDEST DUP3 MSTORE POP POP JUMP JUMPDEST PUSH0 PUSH1 0x20 DUP3 ADD SWAP1 POP PUSH2 0x830 PUSH0 DUP4 ADD DUP5 PUSH2 0x80E JUMP JUMPDEST SWAP3 SWAP2 POP POP JUMP JUMPDEST PUSH32 0x4E487B7100000000000000000000000000000000000000000000000000000000 PUSH0 MSTORE PUSH1 0x11 PUSH1 0x4 MSTORE PUSH1 0x24 PUSH0 REVERT JUMPDEST PUSH0 PUSH2 0x86D DUP3 PUSH2 0x475 JUMP JUMPDEST SWAP2 POP PUSH2 0x878 DUP4 PUSH2 0x475 JUMP JUMPDEST SWAP3 POP DUP3 DUP3 ADD SWAP1 POP DUP1 DUP3 GT ISZERO PUSH2 0x890 JUMPI PUSH2 0x88F PUSH2 0x836 JUMP JUMPDEST JUMPDEST SWAP3 SWAP2 POP POP JUMP JUMPDEST PUSH0 PUSH2 0x8A0 DUP3 PUSH2 0x475 JUMP JUMPDEST SWAP2 POP PUSH32 0xFFFFFFFFFFFFFFFFFFFFFFFFFFFFFFFFFFFFFFFFFFFFFFFFFFFFFFFFFFFFFFFF DUP3 SUB PUSH2 0x8D2 JUMPI PUSH2 0x8D1 PUSH2 0x836 JUMP JUMPDEST JUMPDEST PUSH1 0x1 DUP3 ADD SWAP1 POP SWAP2 SWAP1 POP JUMP JUMPDEST PUSH0 DUP2 SWAP1 POP SWAP3 SWAP2 POP POP JUMP JUMPDEST PUSH0 PUSH2 0x8F1 DUP3 PUSH2 0x71C JUMP JUMPDEST PUSH2 0x8FB DUP2 DUP6 PUSH2 0x8DD JUMP JUMPDEST SWAP4 POP PUSH2 0x90B DUP2 DUP6 PUSH1 0x20 DUP7 ADD PUSH2 0x736 JUMP JUMPDEST DUP1 DUP5 ADD SWAP2 POP POP SWAP3 SWAP2 POP POP JUMP JUMPDEST PUSH0 PUSH2 0x922 DUP3 DUP5 PUSH2 0x8E7 JUMP JUMPDEST SWAP2 POP DUP2 SWAP1 POP SWAP3 SWAP2 POP POP JUMP JUMPDEST PUSH32 0x4E487B7100000000000000000000000000000000000000000000000000000000 PUSH0 MSTORE PUSH1 0x22 PUSH1 0x4 MSTORE PUSH1 0x24 PUSH0 REVERT JUMPDEST PUSH0 PUSH1 0x2 DUP3 DIV SWAP1 POP PUSH1 0x1 DUP3 AND DUP1 PUSH2 0x971 JUMPI PUSH1 0x7F DUP3 AND SWAP2 POP JUMPDEST PUSH1 0x20 DUP3 LT DUP2 SUB PUSH2 0x984 JUMPI PUSH2 0x983 PUSH2 0x92D JUMP JUMPDEST JUMPDEST POP SWAP2 SWAP1 POP JUMP INVALID LOG2 PUSH5 0x6970667358 0x22 SLT KECCAK256 0xDB PUSH23 0x20CA7B39C97F3B706396C977918B02D4167D5261EF97F5 PUSH8 0xC6FDB4EB33F56473 PUSH16 0x6C634300081A00330000000000000000 "
				},
				"gasEstimates": {
					"creation": {
						"codeDepositCost": "499200",
						"executionCost": "infinite",
						"totalCost": "infinite"
					},
					"external": {
						"activateContract()": "24539",
						"addPerson(string,uint256)": "infinite",
						"deactivateContract()": "24495",
						"favoriteNumbers(uint256)": "infinite",
						"getFavoriteNumber()": "2454",
						"isActive()": "2554",
						"isGreaterThan(uint256)": "2846",
						"nameToFavoriteNumber(string)": "infinite",
						"people(uint256)": "infinite",
						"state()": "2642",
						"storeNumber(uint256)": "22559",
						"sumToFavoriteNumber()": "infinite"
					}
				},
				"methodIdentifiers": {
					"activateContract()": "8fda356d",
					"addPerson(string,uint256)": "6f760f41",
					"deactivateContract()": "bca353be",
					"favoriteNumbers(uint256)": "29cd1d96",
					"getFavoriteNumber()": "a621d15e",
					"isActive()": "22f3e2d4",
					"isGreaterThan(uint256)": "cb6a33f8",
					"nameToFavoriteNumber(string)": "8bab8dd5",
					"people(uint256)": "9e7a13ad",
					"state()": "c19d93fb",
					"storeNumber(uint256)": "b6339418",
					"sumToFavoriteNumber()": "0cd2636e"
				}
			},
			"storageLayout": {
				"storage": [
					{
						"astId": 4,
						"contract": "contracts/SimpleStorage1.sol:SimpleStorage",
						"label": "hasFavoriteNumber",
						"offset": 0,
						"slot": "0",
						"type": "t_bool"
					},
					{
						"astId": 7,
						"contract": "contracts/SimpleStorage1.sol:SimpleStorage",
						"label": "favoriteNumber",
						"offset": 0,
						"slot": "1",
						"type": "t_uint256"
					},
					{
						"astId": 11,
						"contract": "contracts/SimpleStorage1.sol:SimpleStorage",
						"label": "favoriteInt",
						"offset": 0,
						"slot": "2",
						"type": "t_int256"
					},
					{
						"astId": 14,
						"contract": "contracts/SimpleStorage1.sol:SimpleStorage",
						"label": "owner",
						"offset": 0,
						"slot": "3",
						"type": "t_address"
					},
					{
						"astId": 17,
						"contract": "contracts/SimpleStorage1.sol:SimpleStorage",
						"label": "favoriteNumberInText",
						"offset": 0,
						"slot": "4",
						"type": "t_string_storage"
					},
					{
						"astId": 20,
						"contract": "contracts/SimpleStorage1.sol:SimpleStorage",
						"label": "favoriteBytes",
						"offset": 0,
						"slot": "5",
						"type": "t_bytes32"
					},
					{
						"astId": 87,
						"contract": "contracts/SimpleStorage1.sol:SimpleStorage",
						"label": "favoriteNumbers",
						"offset": 0,
						"slot": "6",
						"type": "t_array(t_uint256)dyn_storage"
					},
					{
						"astId": 96,
						"contract": "contracts/SimpleStorage1.sol:SimpleStorage",
						"label": "people",
						"offset": 0,
						"slot": "7",
						"type": "t_array(t_struct(Person)92_storage)dyn_storage"
					},
					{
						"astId": 100,
						"contract": "contracts/SimpleStorage1.sol:SimpleStorage",
						"label": "nameToFavoriteNumber",
						"offset": 0,
						"slot": "8",
						"type": "t_mapping(t_string_memory_ptr,t_uint256)"
					},
					{
						"astId": 120,
						"contract": "contracts/SimpleStorage1.sol:SimpleStorage",
						"label": "state",
						"offset": 0,
						"slot": "9",
						"type": "t_enum(ContractState)117"
					}
				],
				"types": {
					"t_address": {
						"encoding": "inplace",
						"label": "address",
						"numberOfBytes": "20"
					},
					"t_array(t_struct(Person)92_storage)dyn_storage": {
						"base": "t_struct(Person)92_storage",
						"encoding": "dynamic_array",
						"label": "struct SimpleStorage.Person[]",
						"numberOfBytes": "32"
					},
					"t_array(t_uint256)dyn_storage": {
						"base": "t_uint256",
						"encoding": "dynamic_array",
						"label": "uint256[]",
						"numberOfBytes": "32"
					},
					"t_bool": {
						"encoding": "inplace",
						"label": "bool",
						"numberOfBytes": "1"
					},
					"t_bytes32": {
						"encoding": "inplace",
						"label": "bytes32",
						"numberOfBytes": "32"
					},
					"t_enum(ContractState)117": {
						"encoding": "inplace",
						"label": "enum SimpleStorage.ContractState",
						"numberOfBytes": "1"
					},
					"t_int256": {
						"encoding": "inplace",
						"label": "int256",
						"numberOfBytes": "32"
					},
					"t_mapping(t_string_memory_ptr,t_uint256)": {
						"encoding": "mapping",
						"key": "t_string_memory_ptr",
						"label": "mapping(string => uint256)",
						"numberOfBytes": "32",
						"value": "t_uint256"
					},
					"t_string_memory_ptr": {
						"encoding": "bytes",
						"label": "string",
						"numberOfBytes": "32"
					},
					"t_string_storage": {
						"encoding": "bytes",
						"label": "string",
						"numberOfBytes": "32"
					},
					"t_struct(Person)92_storage": {
						"encoding": "inplace",
						"label": "struct SimpleStorage.Person",
						"members": [
							{
								"astId": 89,
								"contract": "contracts/SimpleStorage1.sol:SimpleStorage",
								"label": "name",
								"offset": 0,
								"slot": "0",
								"type": "t_string_storage"
							},
							{
								"astId": 91,
								"contract": "contracts/SimpleStorage1.sol:SimpleStorage",
								"label": "favoriteNumber",
								"offset": 0,
								"slot": "1",
								"type": "t_uint256"
							}
						],
						"numberOfBytes": "64"
					},
					"t_uint256": {
						"encoding": "inplace",
						"label": "uint256",
						"numberOfBytes": "32"
					}
				}
			},
			"userdoc": {
				"kind": "user",
				"methods": {},
				"version": 1
			}
		}
	}
}