{
	"data": {
		"bytecode": {
			"linkReferences": {},
			"object": "6080604052348015600e575f80fd5b5061044b8061001c5f395ff3fe608060405234801561000f575f80fd5b506004361061004a575f3560e01c80633a32b5491461004e578063a621d15e1461006c578063b63394181461008a578063e0819c9a146100a6575b5f80fd5b6100566100c4565b60405161006391906101f9565b60405180910390f35b610074610101565b6040516100819190610231565b60405180910390f35b6100a4600480360381019061009f9190610285565b610109565b005b6100ae610112565b6040516100bb91906101f9565b60405180910390f35b60606040518060400160405280601c81526020017f5468697320697320616e2065787465726e616c2066756e6374696f6e00000000815250905090565b5f8054905090565b805f8190555050565b60603073ffffffffffffffffffffffffffffffffffffffff16633a32b5496040518163ffffffff1660e01b81526004015f60405180830381865afa15801561015c573d5f803e3d5ffd5b505050506040513d5f823e3d601f19601f8201168201806040525081019061018491906103ce565b905090565b5f81519050919050565b5f82825260208201905092915050565b8281835e5f83830152505050565b5f601f19601f8301169050919050565b5f6101cb82610189565b6101d58185610193565b93506101e58185602086016101a3565b6101ee816101b1565b840191505092915050565b5f6020820190508181035f83015261021181846101c1565b905092915050565b5f819050919050565b61022b81610219565b82525050565b5f6020820190506102445f830184610222565b92915050565b5f604051905090565b5f80fd5b5f80fd5b61026481610219565b811461026e575f80fd5b50565b5f8135905061027f8161025b565b92915050565b5f6020828403121561029a57610299610253565b5b5f6102a784828501610271565b91505092915050565b5f80fd5b5f80fd5b7f4e487b71000000000000000000000000000000000000000000000000000000005f52604160045260245ffd5b6102ee826101b1565b810181811067ffffffffffffffff8211171561030d5761030c6102b8565b5b80604052505050565b5f61031f61024a565b905061032b82826102e5565b919050565b5f67ffffffffffffffff82111561034a576103496102b8565b5b610353826101b1565b9050602081019050919050565b5f61037261036d84610330565b610316565b90508281526020810184848401111561038e5761038d6102b4565b5b6103998482856101a3565b509392505050565b5f82601f8301126103b5576103b46102b0565b5b81516103c5848260208601610360565b91505092915050565b5f602082840312156103e3576103e2610253565b5b5f82015167ffffffffffffffff811115610400576103ff610257565b5b61040c848285016103a1565b9150509291505056fea264697066735822122000f7813800100eb532533ca5c1e3f33c1db235222d0ae4e52f453833ed65b93664736f6c634300081a0033",
			"opcodes": "PUSH1 0x80 PUSH1 0x40 MSTORE CALLVALUE DUP1 ISZERO PUSH1 0xE JUMPI PUSH0 DUP1 REVERT JUMPDEST POP PUSH2 0x44B DUP1 PUSH2 0x1C PUSH0 CODECOPY PUSH0 RETURN INVALID PUSH1 0x80 PUSH1 0x40 MSTORE CALLVALUE DUP1 ISZERO PUSH2 0xF JUMPI PUSH0 DUP1 REVERT JUMPDEST POP PUSH1 0x4 CALLDATASIZE LT PUSH2 0x4A JUMPI PUSH0 CALLDATALOAD PUSH1 0xE0 SHR DUP1 PUSH4 0x3A32B549 EQ PUSH2 0x4E JUMPI DUP1 PUSH4 0xA621D15E EQ PUSH2 0x6C JUMPI DUP1 PUSH4 0xB6339418 EQ PUSH2 0x8A JUMPI DUP1 PUSH4 0xE0819C9A EQ PUSH2 0xA6 JUMPI JUMPDEST PUSH0 DUP1 REVERT JUMPDEST PUSH2 0x56 PUSH2 0xC4 JUMP JUMPDEST PUSH1 0x40 MLOAD PUSH2 0x63 SWAP2 SWAP1 PUSH2 0x1F9 JUMP JUMPDEST PUSH1 0x40 MLOAD DUP1 SWAP2 SUB SWAP1 RETURN JUMPDEST PUSH2 0x74 PUSH2 0x101 JUMP JUMPDEST PUSH1 0x40 MLOAD PUSH2 0x81 SWAP2 SWAP1 PUSH2 0x231 JUMP JUMPDEST PUSH1 0x40 MLOAD DUP1 SWAP2 SUB SWAP1 RETURN JUMPDEST PUSH2 0xA4 PUSH1 0x4 DUP1 CALLDATASIZE SUB DUP2 ADD SWAP1 PUSH2 0x9F SWAP2 SWAP1 PUSH2 0x285 JUMP JUMPDEST PUSH2 0x109 JUMP JUMPDEST STOP JUMPDEST PUSH2 0xAE PUSH2 0x112 JUMP JUMPDEST PUSH1 0x40 MLOAD PUSH2 0xBB SWAP2 SWAP1 PUSH2 0x1F9 JUMP JUMPDEST PUSH1 0x40 MLOAD DUP1 SWAP2 SUB SWAP1 RETURN JUMPDEST PUSH1 0x60 PUSH1 0x40 MLOAD DUP1 PUSH1 0x40 ADD PUSH1 0x40 MSTORE DUP1 PUSH1 0x1C DUP2 MSTORE PUSH1 0x20 ADD PUSH32 0x5468697320697320616E2065787465726E616C2066756E6374696F6E00000000 DUP2 MSTORE POP SWAP1 POP SWAP1 JUMP JUMPDEST PUSH0 DUP1 SLOAD SWAP1 POP SWAP1 JUMP JUMPDEST DUP1 PUSH0 DUP2 SWAP1 SSTORE POP POP JUMP JUMPDEST PUSH1 0x60 ADDRESS PUSH20 0xFFFFFFFFFFFFFFFFFFFFFFFFFFFFFFFFFFFFFFFF AND PUSH4 0x3A32B549 PUSH1 0x40 MLOAD DUP2 PUSH4 0xFFFFFFFF AND PUSH1 0xE0 SHL DUP2 MSTORE PUSH1 0x4 ADD PUSH0 PUSH1 0x40 MLOAD DUP1 DUP4 SUB DUP2 DUP7 GAS STATICCALL ISZERO DUP1 ISZERO PUSH2 0x15C JUMPI RETURNDATASIZE PUSH0 DUP1 RETURNDATACOPY RETURNDATASIZE PUSH0 REVERT JUMPDEST POP POP POP POP PUSH1 0x40 MLOAD RETURNDATASIZE PUSH0 DUP3 RETURNDATACOPY RETURNDATASIZE PUSH1 0x1F NOT PUSH1 0x1F DUP3 ADD AND DUP3 ADD DUP1 PUSH1 0x40 MSTORE POP DUP2 ADD SWAP1 PUSH2 0x184 SWAP2 SWAP1 PUSH2 0x3CE JUMP JUMPDEST SWAP1 POP SWAP1 JUMP JUMPDEST PUSH0 DUP2 MLOAD SWAP1 POP SWAP2 SWAP1 POP JUMP JUMPDEST PUSH0 DUP3 DUP3 MSTORE PUSH1 0x20 DUP3 ADD SWAP1 POP SWAP3 SWAP2 POP POP JUMP JUMPDEST DUP3 DUP2 DUP4 MCOPY PUSH0 DUP4 DUP4 ADD MSTORE POP POP POP JUMP JUMPDEST PUSH0 PUSH1 0x1F NOT PUSH1 0x1F DUP4 ADD AND SWAP1 POP SWAP2 SWAP1 POP JUMP JUMPDEST PUSH0 PUSH2 0x1CB DUP3 PUSH2 0x189 JUMP JUMPDEST PUSH2 0x1D5 DUP2 DUP6 PUSH2 0x193 JUMP JUMPDEST SWAP4 POP PUSH2 0x1E5 DUP2 DUP6 PUSH1 0x20 DUP7 ADD PUSH2 0x1A3 JUMP JUMPDEST PUSH2 0x1EE DUP2 PUSH2 0x1B1 JUMP JUMPDEST DUP5 ADD SWAP2 POP POP SWAP3 SWAP2 POP POP JUMP JUMPDEST PUSH0 PUSH1 0x20 DUP3 ADD SWAP1 POP DUP2 DUP2 SUB PUSH0 DUP4 ADD MSTORE PUSH2 0x211 DUP2 DUP5 PUSH2 0x1C1 JUMP JUMPDEST SWAP1 POP SWAP3 SWAP2 POP POP JUMP JUMPDEST PUSH0 DUP2 SWAP1 POP SWAP2 SWAP1 POP JUMP JUMPDEST PUSH2 0x22B DUP2 PUSH2 0x219 JUMP JUMPDEST DUP3 MSTORE POP POP JUMP JUMPDEST PUSH0 PUSH1 0x20 DUP3 ADD SWAP1 POP PUSH2 0x244 PUSH0 DUP4 ADD DUP5 PUSH2 0x222 JUMP JUMPDEST SWAP3 SWAP2 POP POP JUMP JUMPDEST PUSH0 PUSH1 0x40 MLOAD SWAP1 POP SWAP1 JUMP JUMPDEST PUSH0 DUP1 REVERT JUMPDEST PUSH0 DUP1 REVERT JUMPDEST PUSH2 0x264 DUP2 PUSH2 0x219 JUMP JUMPDEST DUP2 EQ PUSH2 0x26E JUMPI PUSH0 DUP1 REVERT JUMPDEST POP JUMP JUMPDEST PUSH0 DUP2 CALLDATALOAD SWAP1 POP PUSH2 0x27F DUP2 PUSH2 0x25B JUMP JUMPDEST SWAP3 SWAP2 POP POP JUMP JUMPDEST PUSH0 PUSH1 0x20 DUP3 DUP5 SUB SLT ISZERO PUSH2 0x29A JUMPI PUSH2 0x299 PUSH2 0x253 JUMP JUMPDEST JUMPDEST PUSH0 PUSH2 0x2A7 DUP5 DUP3 DUP6 ADD PUSH2 0x271 JUMP JUMPDEST SWAP2 POP POP SWAP3 SWAP2 POP POP JUMP JUMPDEST PUSH0 DUP1 REVERT JUMPDEST PUSH0 DUP1 REVERT JUMPDEST PUSH32 0x4E487B7100000000000000000000000000000000000000000000000000000000 PUSH0 MSTORE PUSH1 0x41 PUSH1 0x4 MSTORE PUSH1 0x24 PUSH0 REVERT JUMPDEST PUSH2 0x2EE DUP3 PUSH2 0x1B1 JUMP JUMPDEST DUP2 ADD DUP2 DUP2 LT PUSH8 0xFFFFFFFFFFFFFFFF DUP3 GT OR ISZERO PUSH2 0x30D JUMPI PUSH2 0x30C PUSH2 0x2B8 JUMP JUMPDEST JUMPDEST DUP1 PUSH1 0x40 MSTORE POP POP POP JUMP JUMPDEST PUSH0 PUSH2 0x31F PUSH2 0x24A JUMP JUMPDEST SWAP1 POP PUSH2 0x32B DUP3 DUP3 PUSH2 0x2E5 JUMP JUMPDEST SWAP2 SWAP1 POP JUMP JUMPDEST PUSH0 PUSH8 0xFFFFFFFFFFFFFFFF DUP3 GT ISZERO PUSH2 0x34A JUMPI PUSH2 0x349 PUSH2 0x2B8 JUMP JUMPDEST JUMPDEST PUSH2 0x353 DUP3 PUSH2 0x1B1 JUMP JUMPDEST SWAP1 POP PUSH1 0x20 DUP2 ADD SWAP1 POP SWAP2 SWAP1 POP JUMP JUMPDEST PUSH0 PUSH2 0x372 PUSH2 0x36D DUP5 PUSH2 0x330 JUMP JUMPDEST PUSH2 0x316 JUMP JUMPDEST SWAP1 POP DUP3 DUP2 MSTORE PUSH1 0x20 DUP2 ADD DUP5 DUP5 DUP5 ADD GT ISZERO PUSH2 0x38E JUMPI PUSH2 0x38D PUSH2 0x2B4 JUMP JUMPDEST JUMPDEST PUSH2 0x399 DUP5 DUP3 DUP6 PUSH2 0x1A3 JUMP JUMPDEST POP SWAP4 SWAP3 POP POP POP JUMP JUMPDEST PUSH0 DUP3 PUSH1 0x1F DUP4 ADD SLT PUSH2 0x3B5 JUMPI PUSH2 0x3B4 PUSH2 0x2B0 JUMP JUMPDEST JUMPDEST DUP2 MLOAD PUSH2 0x3C5 DUP5 DUP3 PUSH1 0x20 DUP7 ADD PUSH2 0x360 JUMP JUMPDEST SWAP2 POP POP SWAP3 SWAP2 POP POP JUMP JUMPDEST PUSH0 PUSH1 0x20 DUP3 DUP5 SUB SLT ISZERO PUSH2 0x3E3 JUMPI PUSH2 0x3E2 PUSH2 0x253 JUMP JUMPDEST JUMPDEST PUSH0 DUP3 ADD MLOAD PUSH8 0xFFFFFFFFFFFFFFFF DUP2 GT ISZERO PUSH2 0x400 JUMPI PUSH2 0x3FF PUSH2 0x257 JUMP JUMPDEST JUMPDEST PUSH2 0x40C DUP5 DUP3 DUP6 ADD PUSH2 0x3A1 JUMP JUMPDEST SWAP2 POP POP SWAP3 SWAP2 POP POP JUMP INVALID LOG2 PUSH5 0x6970667358 0x22 SLT KECCAK256 STOP 0xF7 DUP2 CODESIZE STOP LT 0xE 0xB5 ORIGIN MSTORE8 EXTCODECOPY 0xA5 0xC1 0xE3 RETURN EXTCODECOPY SAR 0xB2 CALLDATALOAD 0x22 0x2D EXP 0xE4 0xE5 0x2F GASLIMIT CODESIZE CALLER 0xED PUSH6 0xB93664736F6C PUSH4 0x4300081A STOP CALLER "
		},
		"gasEstimates": {
			"creation": {
				"codeDepositCost": "219800",
				"executionCost": "261",
				"totalCost": "220061"
			},
			"external": {
				"externalFunction()": "infinite",
				"getFavoriteNumber()": "2432",
				"storeNumber(uint256)": "22536",
				"testExternalFunction()": "infinite"
			},
			"internal": {
				"internalFunction()": "infinite"
			}
		},
		"methodIdentifiers": {
			"externalFunction()": "3a32b549",
			"getFavoriteNumber()": "a621d15e",
			"storeNumber(uint256)": "b6339418",
			"testExternalFunction()": "e0819c9a"
		}
	},
	"abi": [
		{
			"inputs": [],
			"name": "externalFunction",
			"outputs": [
				{
					"internalType": "string",
					"name": "",
					"type": "string"
				}
			],
			"stateMutability": "pure",
			"type": "function"
		},
		{
			"inputs": [],
			"name": "getFavoriteNumber",
			"outputs": [
				{
					"internalType": "uint256",
					"name": "",
					"type": "uint256"
				}
			],
			"stateMutability": "view",
			"type": "function"
		},
		{
			"inputs": [
				{
					"internalType": "uint256",
					"name": "_favoriteNumber",
					"type": "uint256"
				}
			],
			"name": "storeNumber",
			"outputs": [],
			"stateMutability": "nonpayable",
			"type": "function"
		},
		{
			"inputs": [],
			"name": "testExternalFunction",
			"outputs": [
				{
					"internalType": "string",
					"name": "",
					"type": "string"
				}
			],
			"stateMutability": "view",
			"type": "function"
		}
	]
}